:020000040800F2
:10000000E015002001030008016C0008F546000817
:10001000494F0008FD160008CD7B000800000000D5
:10002000000000000000000000000000756C0008E7
:10003000B918000800000000716C0008CD6C0008C1
:100040001B0300081B0300081B0300081B03000818
:100050001B0300081B0300081B0300081B03000808
:100060001B0300081B0300081B0300081B030008F8
:10007000011700081B030008111700081B030008E4
:100080001B0300081B0300081B0300081B030008D8
:100090001B0300081B0300081B0300081B030008C8
:1000A0001B0300081B0300081B0300081B030008B8
:1000B0001B0300081B0300081B0300081B030008A8
:1000C0001B0300081B0300081B0300081B03000898
:1000D0001B0300081B0300081B030008BD7B00086E
:1000E0001B0300081B0300081B0300081B03000878
:1000F0001B0300081B0300081B0300081B03000868
:100100001B0300081B0300081B0300081B03000857
:100110001B0300081B030008A56D00081B03000853
:100120001B0300081B0300081B0300081B03000837
:100130001B0300081B0300081B0300081B03000827
:100140001B0300081B0300081B0300081B03000817
:100150001B0300081B0300081B0300081B03000807
:100160001B0300081B0300081B0300081B030008F7
:100170001B0300081B0300081B030008000000000D
:100180001B0300081B03000800F002F800F0A8F8A9
:1001900014A696E8000CB244B344DA4501D100F04D
:1001A0009FF8BAE80F000FA696E83000A5EB04050B
:1001B00004EB0607AAEB0704A7F101074FEA1515A0
:1001C0004FEA3414A4F10104AC4201D300F088F8E2
:1001D00013F0010F18BFFB1A43F0010300F001F800
:1001E000DBE71847908E0000B08E0000103A24BF65
:1001F00078C878C1FAD8520724BF30C830C144BF8C
:1002000004680C6070470000704700000023002461
:1002100000250026103A28BF78C1FBD8520728BF16
:1002200030C148BF0B6070476E2900F05D827029B5
:1002300000F0B383662908F00F83652908F00C836A
:10024000672908F00983612908F0088303681B0AFD
:1002500028BF41F08001692900F00A82642900F07A
:100260000782752900F004826F2900F04183782904
:1002700000F07F83E92900F0DB82E42900F0D882D6
:10028000F52900F0D582EF2900F03E83F82900F02F
:100290007E830368DB0928BF41F08001632901F0F8
:1002A000B180732901F0B680E32901F0C180F32900
:1002B00001F0C680002070471FB508F0C0FA01F0B9
:1002C00019F904000020002108F02CFA401C60609D
:1002D0000020002108F010FAE0601FBD10B510BD2D
:1002E00001F0DAF81146FFF7E7FF07F0FFFC01F035
:1002F000B7F903B4FFF7F2FF03BC07F0C9FC000035
:100300000948804709480047FEE7FEE7FEE7FEE7A9
:10031000FEE7FEE7FEE7FEE7FEE7FEE704480549E5
:10032000054A064B70470000916D000889010008DE
:10033000E00F0020E0150020E0110020E011002077
:10034000704753EA020C00F069802DE9F04B4FF042
:100350000006002B1FBFB3FA83F503FA05F424FA55
:1003600005F65E4012BF1643B2FA82F502FA05F4B2
:10037000C5F120051EBF22FA05FC44EA0C04203515
:1003800056EA044C4FEA144418BF641C4FF00008AE
:100390004FF00009904271EB030C39D3002919BFCB
:1003A000B1FA81F701FA07F6B0FA80F700FA07F61A
:1003B000C7F120071EBF20FA07FC46EA0C062037CB
:1003C000B6FBF4FCA7EB0507103F07F01F0BCBF1C2
:1003D00020062CFA06F60CFA0BFB44BFB3460026A7
:1003E000202FA4BF5E464FF0000B5BEA060C08BF4F
:1003F0004FF0010B19EB0B0948EB0608ABFB027C35
:1004000006FB02CC0BFB03CCC01B71EB0C01C1E75C
:100410000B46024641464846BDE8F08B13B50843FB
:1004200018BF4FF0FF300146AFF30080BDE81C401D
:10043000704700000FB4044910B503AA029800F0F9
:1004400087F910BC5DF814FBE80D00207CB51D4653
:1004500016460C00009007D04142A14202D320442E
:10046000401E01E04FF0FF30064B7B442A466946B0
:100470000190304600F051F9002C02D0009A002182
:1004800011707CBDD3020000032A40F2308010F0CE
:10049000030C00F0158011F8013BBCF1020F62441F
:1004A00098BF11F801CB00F8013B38BF11F8013BB0
:1004B000A2F1040298BF00F801CB38BF00F8013B5D
:1004C00011F0030300F03883083AC0F0088051F8B7
:1004D000043B083A51F804CBA0E80810F5E7121DD8
:1004E0005CBF51F8043B40F8043BAFF30080D207F7
:1004F00024BF11F8013B11F801CB48BF11F8012BC3
:1005000024BF00F8013B00F801CB48BF00F8012BE5
:1005100070474FF000020429C0F0128010F0030C65
:1005200000F01B80CCF1040CBCF1020F18BF00F8E6
:10053000012BA8BF20F8022BA1EB0C0100F00DB895
:100540005FEAC17C24BF00F8012B00F8012B48BFF3
:1005500000F8012B70474FF0000200B51346944697
:100560009646203922BFA0E80C50A0E80C50B1F10B
:100570002001BFF4F7AF090728BFA0E80C5048BF1F
:100580000CC05DF804EB890028BF40F8042B08BFBD
:10059000704748BF20F8022B11F0804F18BF00F8B9
:1005A000012B7047704770477047704770B504461D
:1005B00085690068C10601D5302600E02026C00705
:1005C00007D070BDD4E9012130469047206A401C15
:1005D00020626D1EF6D570BD70B504468569007841
:1005E000C00707D170BDD4E9012120209047206ABF
:1005F000401C20626D1EF6D570BD09684A0501D504
:1006000040B27047C905FCD500B2704709684A0579
:1006100001D5C0B27047C905FCD580B2704770B52E
:100620000C460546012A05D02878800600D5EA69DF
:10063000002302E0012305E05B1C934202D2E05C50
:100640000028F9D1A869E618C01AA861286A1844D8
:1006500028622846FFF7AAFF04E0D5E9012114F833
:10066000010B9047B442F8D32846FFF7B5FF70BDA1
:100670002DE9F0410646002410687529314616A57B
:1006800010D0FFF7BAFF002802DA404213A507E0B6
:1006900031688A0701D512A502E0490704D511A5E2
:1006A000012401E0FFF7B2FF00210A2206F124072E
:1006B00009E0B0FBF2FCB0FBF2F302FB1C003030AF
:1006C00078541846491C0028F3D123462A46304660
:1006D000BDE8F04100F0A7BA000000002D000000C6
:1006E0002B0000002000000011680268006A53051A
:1006F00001D508700AE0D30501D5088006E013068D
:1007000003D5C217C1E9000200E00860012070476C
:1007100001694A1C02610878704700B58FB0CDE9C5
:1007200001310021059105497944CDE903101146B5
:10073000684600F03DF90FB000BD0000E5FFFFFF87
:10074000D1E900239A4202D2531C0B60107070470B
:10075000074B70B50D467B44FFF7DFFF0446284684
:1007600000F072FE10B14FF0FF3070BD204670BD3A
:100770005F7500002DE9FF5F15468A460446DFF8E5
:10078000AC80F8440027D8E900103E46CDE90010BF
:1007900010E03AF816106A4602A800F059FE411C13
:1007A00007D02178890603D5E269391891420DD81E
:1007B0000744761C2078800602D5E069B84205DD42
:1007C000AE42E6DB3AF816000028E2D1A069C01B71
:1007D000A0612046FFF7EAFED8E90010CDE900103D
:1007E000002017E03AF818106A4602A800F030FE20
:1007F000B0F1FF3F81460BD000250DF1080B05E05D
:10080000D4E901211BF8050090476D1C4D45F7D335
:1008100008F10100B0428046E4DB206A38442062DF
:100820002046FFF7D9FEBDE8FF9F0000DA800000F8
:100830002DE9F0418046D21D22F007020025D2E9C1
:100840000002F52915A614D0011E72F1000106DA86
:100850000023D0EB030063EB020211A608E0D8F8F6
:1008600000108B0701D50FA602E0490701D50EA69F
:1008700001251146002408F1240704E000F08EF958
:1008800030323A55641C50EA0102F7D12B46324609
:1008900021464046BDE8F04100F0C5B90000000027
:1008A0002D0000002B0000002000000030B40021CB
:1008B00000F1240408E002F00705D208303542EACE
:1008C0004372DB086554491C52EA0305F3D10468FE
:1008D000002310A2250708D504F020040C4304D0FF
:1008E000C46901230CA2641EC46130BC00F09BB932
:1008F00010B5044621461068FFF788FE02462046E0
:10090000BDE810400023D1E7D21D22F00701D1E954
:100910000023CBE70000000030000000F0B40D46DB
:100920000188090502D5214C7C4402E01F4C7C441F
:100930000E34002100F1240608E002F00F0712092E
:10094000E75D42EA03721B097754491C52EA030728
:10095000F3D102780023120704D5702D06D009B117
:10096000022311342246F0BC00F05DB9012310349B
:10097000F8E770B504460D4621461068FFF746FEBD
:10098000024629462046BDE870400023C6E7D21D36
:1009900022F00703D3E90023C0E70368126843F09D
:1009A000200303600823C3610023B7E73C7F0000F6
:1009B0002DE9F05F894604464FF0000ADFF874B174
:1009C000FB44C0F820A02046E1688847002874D086
:1009D000252806D0D4E901219047206A401C2062D6
:1009E000F1E700265F462046E16888472028054653
:1009F00007DB312D05D2781910F8200C08B1064319
:100A0000F1E7B00701D526F00406C4F81CA00027C2
:100A1000C4F818A02A2D09D0284607F065FE38B37F
:100A200004EB8708303DC8F8185019E059F8041B4A
:100A3000204604EB87029161E1688847012F054653
:100A400018D1E069002820DA26F020061DE0D8F849
:100A5000180000EB800005EB40003038C8F81800A3
:100A60002046E1688847054607F03EFE0028EED1A3
:100A7000012F0AD02E2D08D12046E16888477F1C1F
:100A80000546022F46F02006C4DBA069002803DAE1
:100A9000404246F00106A061F00701D026F01006A2
:100AA0006C2D0BD0682D09D04C2D39D06A2D35D046
:100AB000742D35D07A2D33D016E038E0E1682F461A
:100AC00020468847B842054609D16C2F26D04FF4FE
:100AD0008060E168064320468847054604E06C2FA5
:100AE0001AD04FF4807006430DB3A5F141001928C8
:100AF00002D8203546F400664A462946204626603C
:100B00004E46FFF791FB80B101280BD0F61D26F071
:100B1000070000F1080956E74020E4E78020D8E705
:100B20000020D6E706F104094DE7284652E7206A7F
:100B3000BDE8F09FCC7E000010B5203AC0F00B80DD
:100B4000B1E81850A0E81850B1E81850A0E81850C3
:100B5000203ABFF4F5AF5FEA027C24BFB1E8185039
:100B6000A0E8185044BF18C918C0BDE810405FEA9B
:100B7000827C24BF51F8043B40F8043B08BF704717
:100B8000D20728BF31F8023B48BF11F8012B28BF1C
:100B900020F8023B48BF00F8012B704730B5B0F198
:100BA0000A0271F100034FEA900E4EEA817EB0EB2B
:100BB0000E0061EB91014FEA101E4EEA017E10EB30
:100BC0000E0041EB11114FEA102E4EEA016E10EBB0
:100BD0000E0041EB11214FEA104E4EEA014E10EB90
:100BE0000E0041EB1141401841F100014FEAD000E5
:100BF00040EA41704FEAD1014FEA810444EA90741F
:100C000010EB800544EB01046D1944EB0404521B06
:100C1000A3414FF0000348BF0A3200D530BD401C4D
:100C200041F1000130BD2DE9F0470D46994692464D
:100C3000044600F124080168880604D5E06921F023
:100C40001001216000E00120A84201DD471B00E007
:100C50000027A1697A1902EB0900081AA06120781F
:100C6000C00602D42046FFF7A1FC002608E0D4E924
:100C700001211AF806009047206A401C761C206269
:100C80004E45F4DB2078C0060AD52046FFF78EFCDF
:100C900006E0D4E9012130209047206A401C206200
:100CA000381EA7F10107F4DC07E0D4E9012118F8A8
:100CB00005009047206A401C2062281EA5F101050E
:100CC000F3DC2046FFF788FC2078000602D50220DE
:100CD000BDE8F0870120FBE72DE9FF4F0C461E46DB
:100CE0004FF0FF378BB0D2E90001DDF860800A9049
:100CF0008A46C1F30A5505B93D46002108464FF022
:100D00000000BAF1000F00F4400005DA00EB8000AB
:100D10004FF4400101EA50004FEA9059B9F1010F38
:100D200000DDB9460A9850EA4A000ED044F6105049
:100D3000A5F2FF3545432F14B8F1000F1ED07542C0
:100D4000291E1EDDC9F100021CE0B8F1010F4FF0B1
:100D5000000001D0302103E0F24305E02154401CA3
:100D6000B042FBDB30460022002121540B99C1F830
:100D70000880C1E900200FB0BDE8F08FBD1B6D1CDD
:100D8000DEE74A4600DA694206A800F0F7FB06AB48
:100D900093E8070003AB83E8070050460A9907F081
:100DA000C3F88DE80700A0F500501F3800900398A5
:100DB000002D0ADD42F21F014A460844002303A920
:100DC0000390684607F02CFB09E0A0F500504A4666
:100DD0001F38002303A90390684607F036FB8DE80F
:100DE00007000004000C03D04FF0FF30410800E082
:100DF0001046B8F1000F03D00022009215461EE005
:100E0000751E05D4FFF7CAFE303262556D1EF9D546
:100E1000B3460122084302D000227F1C04E0207860
:100E2000302801D100227F1E002A099784D01DE0BE
:100E3000112D07DAFFF7B2FE303262556D1C50EA11
:100E40000102F5D1084302D00098C8B10EE000219C
:100E5000681E05E0235C625C63542254401E491CFA
:100E60008142F7DBAB46A81B401E0990002004F826
:100E70000B000B98099AC0F80880C0E9002B7AE7AC
:100E800011264FF0000857E72DE9F04F8846044639
:100E9000D21D22F0070191B0D1E90001CDE90A018C
:100EA00007F00AFC02460B98C00F01D02D2007E086
:100EB0002068810701D52B2002E0202101EAC00033
:100EC000032A099001D0072A05DB03464146204644
:100ED00000F014FB0BE12078800601D5E06900E00A
:100EE0000620B8F1650F814606D0B8F1660F18D01C
:100EF000B8F1670F70D131E00020B9F1110F009007
:100F000001DB112301E009F101030AAA01A90CA8E0
:100F1000FFF7E2FEDDE90C70002609F101058346CA
:100F200047E001204B4600904FF000470AAA01A974
:100F30000CA8FFF7D1FEDDE90DB00C995D46002647
:100F400010B909F101000D18B9EB050003D4C0F187
:100F5000FF3609F10105A5EB09002BE0B9F1010FFE
:100F600001DA4FF001090020B9F1110F0090484655
:100F700001DD112300E003460AAA01A90CA8FFF72E
:100F8000ABFEDDE90C704D46002683462078000755
:100F90000AD4AB4500DA5D4601A8012D04DD4119F4
:100FA00011F8011C302907D04F4502DA17F1040F60
:100FB00004DA012082460FE06D1EEEE7002F02DC0E
:100FC000ED1B3E4403E0781CA84200DD7D1CB81BED
:100FD00000F1010A4FF000472078000703D4AA452A
:100FE00001DB4FF0FF3A0021B7F1004F0DF143084C
:100FF0008DF8431024D002202B23002F01DA7F42EA
:101000002D230A21021EA0F1010000DC5FB197FB35
:10101000F1FC97FBF1F201FB1C7C17460CF1300C44
:1010200008F801CDEEE7A8F1010003702188090559
:1010300001D5452100E06521A0F1010800F8011C5F
:1010400009980FA9A1EB0807FF1D00B10120411964
:1010500001EBEA70A1693844081A401EA0612078AB
:10106000C00602D42046FFF7A1FA099828B1D4E9B6
:1010700001219047206A401C20622078C00622D5BA
:101080002046FFF793FA1EE0002E04DBB34502DD95
:1010900001A8805D00E03020D4E901219047206A5A
:1010A000401C2062761CAAF101005FEA000A0AD106
:1010B00000F020FAC0680168405CD4E90121904743
:1010C000206A401C2062281EA5F10105DCDC07E037
:1010D000D4E9012118F8010B9047206A401C2062D6
:1010E000381EA7F10107F3DC2046FFF775FA03204D
:1010F00011B041E62DE9F04F04460D46D21D22F015
:10110000070089B0D0E900974846394607F0D4FA7D
:101110000246F80F01D02D2307E02068810701D592
:101120002B2302E0202101EAC0038DF820300BB10F
:10113000012000E00020032A824601D0072A04DBB8
:101140002946204600F0DAF93FE12078800601D4F4
:101150000D2500E0E569C7F30A560D2D49DA002197
:101160004FEA175B08464FF00000002F00F44000E4
:1011700007DA00EB80004FF4400100EBD07001EA89
:1011800060008115012901DD4FF0FF3100224FEA97
:10119000850CBCF1180F06D31346ACF118004FF0C4
:1011A0008052C24003E04FF4801323FA0CF30CF199
:1011B0000C0CBCF1200F04D3ACF1200C09FA0CF09C
:1011C00001E007FA0CF000294FF0004801DD18B9E2
:1011D0000FE00ED140450CD319EB02095F4121B954
:1011E000404502D19F4329EA0209BBEB175F00D0BB
:1011F000761C2088000502D57B48784402E07A48B6
:101200007844193808AA302302F80A30037C0AF11E
:101210000101002E0AF1020A53546A4602DC4FF023
:10122000300101E04FF031014FF001088DF800105E
:1012300002D0A6F2FF3603E059EA470100D06B4E18
:10124000002D02DC2178090704D54FF002082E2179
:101250008DF80110C44600210BE0C7F303433F01A2
:10126000C35C491C6D1E02F80830052908F101080D
:1012700001DA002DF1DC00210CE000EB1973491CB0
:101280001B786D1E082902F808304FEA091908F189
:10129000010801DA002DF0DC21688B0602D516E08A
:1012A000A8F10108E04505DD02EB080313F8013C55
:1012B000302BF5D0B8F1000F09DD02EB080313F86D
:1012C000013C2E2B03D1090701D4A8F10108002D00
:1012D00005DD3E2102F808106D1E08F10108407C72
:1012E000002E02F8080008F1010804DA2D207642E9
:1012F00002F8080002E02B2002F808000A214FF44F
:101300007A70864208F101080BDB96FBF0F330336C
:1013100002F8083096FBF0F308F1010800FB1366B1
:1013200001E0642E0CDB642096FBF0F3303302F80E
:10133000083096FBF0F308F1010800FB136601E0AA
:101340000A2E06DB96FBF1F0303002F8080008F1B7
:10135000010896FBF1F001FB1060303002F8080044
:10136000A16908F1010808EB050202EB0A00081A5E
:10137000A0612078C00602D42046FFF717F9216A41
:1013800008AE01EB0A00206204E0D4E9012116F85E
:10139000010B9047BAF1010AF7D22078C00602D5B6
:1013A0002046FFF703F96E4609E016F8010B3E28C8
:1013B0000FD0D4E901219047206A401C2062B8F187
:1013C0000108F2D22046FFF707F909B00320BDE873
:1013D000F08F206A2844206203E0D4E90121302004
:1013E00090476D1EEBD3F8E7B676000002FCFFFFD6
:1013F00010B5436913B1AFF3008001E0FFF70FF9B7
:10140000012010BD127800F124010A7000224A70F8
:101410000122EDE711684FF0FF32E9E710B54369AB
:1014200013B1AFF3008001E0FFF7A4F9012010BD74
:10143000128800F1240182840022C2840122EDE797
:1014400011684FF0FF32E9E7007B00F08000704741
:101450002DE9F04116460C46054600F043F80368B6
:1014600093F80101012807D0FF2C12D8185D80B134
:1014700001202C70BDE8F081D3F8070132462146E7
:1014800003F20713C7182846BC46BDE8F041002305
:1014900060474FF0FF30EDE7754600F0EBF8AE46E1
:1014A00005006946534620F00700854618B020B570
:1014B000FEF734FFBDE820404FF000064FF0000774
:1014C0004FF000084FF0000BAC46ACE8C009ACE8A8
:1014D000C009ACE8C009ACE8C00921F007018D469D
:1014E0007047000010B500F005F8001D10BD00BFEA
:1014F0003572000000487047300000202DE9F041AF
:101500001F46044603260168072A01F4006004DB35
:1015100008B116A505E016A503E008B115A500E081
:1015200015A521F010002060A069C01EA0610FB1B8
:10153000401EA0612046FFF739F84FB1D4E90121E0
:1015400038469047206A401C2062C01C206206E09A
:10155000206AFAE7D4E9012115F8010B9047761EBD
:10156000F8D22046FFF738F8BDE8F0814E414E0032
:101570006E616E00494E4600696E66002DE9F047C7
:10158000814616468AB0354878440DC88DE80D006E
:1015900032487844801C03AC0DC884E80D0041F645
:1015A0009B300844372190FBF1F290FBF1F5A5F157
:1015B000800501FB12041B3C02D56442012000E0BF
:1015C0000020DFF898A080460027FA44AAF1BE0A5E
:1015D0000EE0E0070AD03246684607EB47010123D8
:1015E0000AEB810106F031FF8DE8070064107F1CD3
:1015F000002CEED1194F7F44AE3F19E0E80715D01B
:1016000007EB04100DF1180A90E80E008AE80E00AE
:10161000C068F04201D1981908903246012306A90A
:1016200003A806F012FF03AB83E807006D10641CEB
:10163000002DE3D14FF0010332466946B8F1000FA7
:1016400003A802D006F0ECFE01E006F0FEFEC9E9B8
:101650000001C9F808200AB0BDE8F087B87300009F
:1016600010B50446AFF300802046BDE81040FEF7F9
:1016700040BE00000048704710000020000000003D
:1016800030B44FF0013C50F8042B51F8043BCCFA35
:1016900052F4D51A20D1FCB950F8042B51F8043B70
:1016A000CCFA52F4D51A17D1B4B950F8042B51F82A
:1016B000043BCCFA52F4D51A0ED16CB950F8042B75
:1016C00051F8043BCCFA52F4D51A05D1002CDAD0EB
:1016D00030BC4FF00000704729BAB1FA81F111F027
:1016E0001801D1F120008440F2D1CA40CB4012F061
:1016F000FF0213F0FF0330BCD01A7047FFE7FEE78C
:1017000080B540F63C60C2F2000000F073F980BD85
:1017100080B540F69C60C2F2000000F06BF980BD1D
:1017200082B001900198007810384AF6AB21CAF6D1
:10173000AA21A0FB011000090090009948F674103E
:10174000C0F60000405C0199C8650098042807D3E2
:10175000FFE701990868042262F30900886506E042
:101760000199086840F2FF3290438865FFE70198CD
:10177000806D02B07047000086B0059000208DF8A3
:1017800013000598806A03900598806910BBFFE7F5
:101790000398029003281BD80299DFE801F0020D9C
:1017A0000218059890F82F00C00720B1FFE701202C
:1017B0008DF81300FFE70CE00598C06AB0F1C07F18
:1017C00004D1FFE701208DF81300FFE701E000E0FE
:1017D000FFE745E005988069B0F5005F25D1FFE798
:1017E0000398019003281ED80199DFE801F0020652
:1017F000021101208DF8130016E0059890F82F00D3
:10180000C00720B1FFE701208DF81300FFE70BE0D0
:101810000598C06AB0F1C07F04D1FFE701208DF8C0
:101820001300FFE700E0FFE719E0039800900328AA
:1018300004D3FFE70098032804D00EE001208DF8C0
:1018400013000BE0059890F82F00C00720B1FFE7C8
:1018500001208DF81300FFE700E0FFE7FFE7FFE757
:101860009DF8130006B0704784B003900291019276
:10187000009303980168086820F4802008600098AD
:1018800003990968486003988068402809D1FFE7F8
:101890000198039909688860029803990968C860EB
:1018A00008E002980399096888600198039909681B
:1018B000C860FFE704B070477047000072B6FFE7EA
:1018C000FEE7000080B584B002900298806D019020
:1018D00000F068FD0090029890F8350002280DD0C5
:1018E000FFE7029980204865FFE70299002081F810
:1018F0003400FFE701208DF80F0055E002980168E1
:10190000086820F01600086002980168486920F015
:10191000800048610298006C20B9FFE70298806C53
:1019200038B1FFE702980168086820F008000860F5
:10193000FFE702980168086820F001000860FFE7EF
:10194000029800680068C007C8B1FFE700F02AFDF0
:101950000099401A062811D3FFE702992020486514
:101960000299032081F83500FFE70299002081F8F1
:101970003400FFE703208DF80F0015E0E0E7029840
:10198000C16D3F208840019988600299012081F84B
:101990003500FFE70299002081F83400FFE7FFE7F8
:1019A00000208DF80F00FFE79DF80F0004B080BD08
:1019B00082B00090009890F83500022807D0FFE729
:1019C00000998020486501208DF807000EE00099FD
:1019D000052081F8350000980168086820F00100B2
:1019E0000860FFE700208DF80700FFE79DF807007B
:1019F00002B0704780B586B005900020039040F299
:101A00000000C2F20000006848F2B511C1F64E3184
:101A1000A0FB0110800A02900598806D019001984A
:101A20000068049004980599C96DC8400007002813
:101A30001AD5FFE70598006800684007002812D50E
:101A4000FFE705980168086820F004000860059821
:101A5000C16D08208840019988600599486D40F063
:101A600001004865FFE7FFE704980599C96DC84084
:101A7000C007A0B1FFE7059800684069000600288C
:101A80000CD5FFE70598C16D012088400199886059
:101A90000599486D40F002004865FFE7FFE70498AC
:101AA0000599C96DC8404007002814D5FFE705987F
:101AB00000680068800700280CD5FFE70598C16D15
:101AC00004208840019988600599486D40F0040021
:101AD0004865FFE7FFE704980599C96DC840C0064F
:101AE000002847D5FFE70598006800680007002830
:101AF0003FD5FFE70598C16D1020884001998860A7
:101B0000059800680068400300281AD5FFE705988B
:101B1000006800680003002809D4FFE70598006CFE
:101B200020B1FFE70598016C8847FFE708E00598BA
:101B3000806C20B1FFE70598816C8847FFE7FFE7DD
:101B400016E0059800680068C005002807D4FFE784
:101B500005980168086820F008000860FFE705980C
:101B6000006C20B1FFE70598016C8847FFE7FFE7AD
:101B7000FFE7FFE704980599C96DC8408006002873
:101B800040F18D80FFE7059800680068C0060028D6
:101B900040F18480FFE70598C16D202088400199BD
:101BA0008860059890F83500052834D1FFE705983E
:101BB0000168086820F01600086005980168486907
:101BC00020F0800048610598006C20B9FFE7059877
:101BD000806C38B1FFE705980168086820F00800BC
:101BE0000860FFE70598C16D3F2088400199886033
:101BF0000599012081F83500FFE70599002081F85B
:101C00003400FFE70598006D20B1FFE70598016DEE
:101C10008847FFE77BE005980068006840030028DC
:101C20001AD5FFE70598006800680003002809D46A
:101C3000FFE70598406C20B1FFE70598416C8847A5
:101C4000FFE708E00598C06B20B1FFE70598C16B7E
:101C50008847FFE7FFE720E0059800680068C005B7
:101C6000002811D4FFE705980168086820F01000EB
:101C700008600599012081F83500FFE705990020EB
:101C800081F83400FFE7FFE70598C06B20B1FFE75C
:101C90000598C16B8847FFE7FFE7FFE7FFE7059877
:101CA000406DA0B3FFE70598406DC00730B3FFE774
:101CB0000599052081F8350005980168086820F02D
:101CC00001000860FFE70398013003900299884201
:101CD00001D9FFE707E0FFE7059800680068C00743
:101CE0000028F0D1FFE70599012081F83500FFE7D2
:101CF0000599002081F83400FFE7FFE70598C06CE4
:101D000020B1FFE70598C16C8847FFE7FFE706B001
:101D100080BD000080B586B004900020039000F0E4
:101D200041FB0290049820B9FFE701208DF81700CD
:101D3000A3E00498406A08B1FFE7FFE70499022096
:101D400081F83500FFE70499002081F83400FFE7AF
:101D500004980168086820F001000860FFE7049813
:101D600000680068C00790B1FFE700F01BFB029914
:101D7000401A06280AD3FFE70499202048650499F1
:101D8000032081F835008DF8170076E0E7E7049826
:101D9000006800680390039848F23F01CFF21001F9
:101DA00008400390049900914868D1F808C0CB68B6
:101DB0000A6940EA0C00184310434A6910438A69D3
:101DC0001043CA691043096A01430398084303900A
:101DD0000498406A042808D1FFE70499C86A096B8F
:101DE0000143039808430390FFE7039804990968A7
:101DF00008600498006840690390039820F0070089
:101E000003900498416A0398084303900498406A39
:101E100004281AD1FFE70498816A039808430390C5
:101E20000498C06A80B1FFE70498FFF7A5FC50B1A1
:101E3000FFE70499402048650499012081F83500A6
:101E40008DF8170019E0FFE7FFE703980499096888
:101E500048610498FFF764FC01900498C16D3F202D
:101E6000884001998860049900204865049A0121FE
:101E700082F835108DF81700FFE79DF8170006B0BF
:101E800080BD000080B588B0069005910492039350
:101E900000208DF80B000698806D0190FFE70698F2
:101EA00090F83400012804D1FFE702208DF81F00CC
:101EB00045E00699012081F83400FFE7FFE7069826
:101EC00090F8350001282BD1FFE70699022081F810
:101ED000350006990020486506980599049A039BE9
:101EE000FFF7C2FC0698C16D3F20884001998860C9
:101EF00006980168086840F0160008600698006CB3
:101F000038B1FFE706980168086840F008000860EB
:101F1000FFE706980168086840F00100086009E0E2
:101F2000FFE70699002081F83400FFE702208DF8D2
:101F30000B00FFE79DF80B008DF81F00FFE79DF8F1
:101F40001F0008B080BD000080B584B0039000F091
:101F500029FA0290039801900198013048B1FFE7F7
:101F600040F20400C2F20000017801980844019098
:101F7000FFE7FFE700F016FA0299401A019988423C
:101F800001D2FFE7F6E704B080BD00008EB00D90EF
:101F90000C9100200A90099008900B90FFE70B9895
:101FA0000F2800F2CC81FFE70B99012088400A90AE
:101FB0000C9800680A990840099009980A99884283
:101FC00040F0B881FFE70C98406800F0030001285A
:101FD00007D0FFE70C98406800F0030002282FD1DB
:101FE000FFE70D98806808900B984100032000FAE5
:101FF00001F10898884308900C98C0680B99490033
:1020000000FA01F108980843089008980D99886033
:102010000D98406808900B99012000FA01F108988A
:10202000884308900C984068C0F300100B9900FAA0
:1020300001F108980843089008980D994860FFE757
:102040000C98406800F00300032818D0FFE70D98B3
:10205000C06808900B984100032000FA01F108982D
:10206000884308900C9880680B99490000FA01F1A8
:1020700008980843089008980D99C860FFE70C98E5
:10208000406800F00300022826D1FFE70D980B9965
:102090006FF0030202EA51010844006A08900B98AD
:1020A00000F0070081000F2000FA01F10898884332
:1020B00008900C9800690B9901F00701890000FA5B
:1020C00001F108980843089008980D990B9B02EAC3
:1020D000530211440862FFE70D98006808900B98BE
:1020E0004100032000FA01F10898884308900C98F9
:1020F000406800F003000B99490000FA01F10898CC
:102100000843089008980D9908600C98807980071A
:10211000002800F00E81FFE7FFE70020079043F65C
:102120004400C4F20200016841F48041016000688B
:1021300000F4804007900798FFE70B9820F0030019
:1021400043F60801C4F20101405808900B9800F0D2
:10215000030081000F2000FA01F1089888430890DD
:102160000D980021C4F20201884203D1FFE700204C
:1021700006905EE00D9840F20041C4F202018842F0
:1021800003D1FFE70120059050E00D9840F60001D3
:10219000C4F20201884203D1FFE70220049042E02A
:1021A0000D9840F60041C4F20201884203D1FFE7D6
:1021B0000320039034E00D9841F20001C4F20201C3
:1021C000884203D1FFE70420029026E00D9841F2F7
:1021D0000041C4F20201884203D1FFE705200190CB
:1021E00018E00D9841F60001C4F20201884203D1C3
:1021F000FFE7062000900AE00D9941F60042C4F284
:1022000002020820914208BF07200090FFE70098D3
:102210000190FFE701980290FFE702980390FFE723
:1022200003980490FFE704980590FFE7059806904F
:10223000FFE70698C0B20B9901F00301890000FA8C
:1022400001F108980843089008980B9921F00301C0
:1022500043F60802C4F20102885043F60840C4F273
:1022600001000068089009990898884308900C9824
:102270008079C006002805D5FFE70999089808432A
:102280000890FFE7089843F60841C4F2010108608E
:1022900043F60C40C4F201000068089009990898C0
:1022A000884308900C9880798006002805D5FFE7C0
:1022B0000999089808430890FFE7089843F60C41ED
:1022C000C4F20101086043F60440C4F20100006852
:1022D000089009990898884308900C98807980079D
:1022E000002805D5FFE70999089808430890FFE7FB
:1022F000089843F60441C4F20101086043F6004027
:10230000C4F2010000680890099908988843089071
:102310000C988079C00728B1FFE70999089808430D
:102320000890FFE7089843F60041C4F201010860F5
:10233000FFE7FFE7FFE70B9801300B902FE60EB0A9
:102340007047000082B00190ADF80210019800695A
:10235000BDF80210084204D0FFE701208DF801000B
:1023600003E000208DF80100FFE79DF8010002B0B6
:102370007047000082B00190ADF802108DF8012086
:102380009DF8010028B1FFE7BDF8020001998861BE
:1023900005E0BDF80200000401998861FFE702B082
:1023A0007047000040F6D470C2F200000068704729
:1023B00040F20400C2F20000027840F6D471C2F28A
:1023C00000010868104408607047000080B543F6BB
:1023D0000041C4F20201086840F400700860086817
:1023E00040F480600860086840F480700860032052
:1023F00000F08AF80F2000F005F800F03BF800200C
:1024000080BD000080B582B0009040F20000C2F2B2
:102410000000006840F20401C2F200010A784FF4A3
:102420007A71B1FBF2F1B0FBF1F000F0A5FD20B143
:10243000FFE701208DF8070018E000980F280DD85D
:10244000FFE700994FF0FF30002200F043F80098BA
:1024500040F20801C2F20001086003E001208DF89B
:10246000070003E000208DF80700FFE79DF8070054
:1024700002B080BD82B0FFE70020019043F6440027
:10248000C4F20200016841F480410160006800F478
:10249000804001900198FFE7FFE70020009043F69D
:1024A0004000C4F20200016841F080510160006800
:1024B00000F0805000900098FFE702B070470000E5
:1024C00080B582B08DF807009DF9070005F080FB0C
:1024D00002B080BD80B586B08DF8170004910392DC
:1024E0000020029005F08CFB02909DF917000190EE
:1024F00002980499039A04F085FB0146019805F0BF
:1025000087FB06B080BD000080B582B001900198C5
:1025100005F0A0FB02B080BD80B584B002900191AF
:10252000029820B9FFE701208DF80F0021E1019802
:1025300043F60041C4F20201096801F00701884234
:1025400012D9FFE7019943F60040C4F2020001707E
:10255000006800F007000199884204D0FFE70120DD
:102560008DF80F0005E1FFE702980078800700284A
:102570002AD5FFE7029800784007002809D5FFE731
:1025800043F60801C4F20201086840F4E050086014
:10259000FFE7029800780007002809D5FFE743F617
:1025A0000801C4F20201086840F460400860FFE7D7
:1025B00043F60801C4F20201086820F0F000029A14
:1025C000926810430860FFE702980078C00700286F
:1025D0006ED0FFE702984068012811D1FFE743F66B
:1025E0000000C4F20200006800F400310020B0EBEB
:1025F000514F04D1FFE701208DF80F00B9E02CE026
:1026000002984068022805D0FFE702984068032836
:1026100011D1FFE743F60000C4F20200006800F0A9
:1026200000710020B0EB516F04D1FFE701208DF85D
:102630000F009EE010E043F60000C4F202000068C4
:1026400000F002010020B0EB510F04D1FFE70120A0
:102650008DF80F008DE0FFE7FFE743F60801C4F2B5
:102660000201086820F00300029A526810430860D3
:10267000FFF798FE0090FFE743F60800C4F202005F
:10268000006800F00C0002994968B0EB810F0ED091
:10269000FFE7FFF787FE0099401A41F2893188422F
:1026A00004D3FFE703208DF80F0062E0E4E7FFE7C3
:1026B000019843F60041C4F20201096801F00701E4
:1026C000884212D2FFE7019943F60040C4F20200AB
:1026D0000170006800F007000199884204D0FFE70C
:1026E00001208DF80F0044E0FFE7029800784007D2
:1026F00000280CD5FFE743F60801C4F20201086880
:1027000020F4E050029AD26810430860FFE7029874
:102710000078000700280DD5FFE743F60801C4F252
:102720000201086820F46040029A126940EAC2007F
:102730000860FFE700F04CF843F60801C4F202011C
:102740000968C9B20A0948F65C11C0F60001895C43
:10275000C84040F20001C2F20001086040F20800E7
:10276000C2F200000068FFF74DFE00208DF80F0058
:10277000FFE79DF80F0004B080BD000040F20000AC
:10278000C2F200000068704780B5FFF7F7FF43F61C
:102790000801C4F202010968C1F3822248F66C11F3
:1027A000C0F60001895CC84080BD000080B5FFF71D
:1027B000E5FF43F60801C4F20201096889B24A0B39
:1027C00048F66C11C0F60001895CC84080BD00006D
:1027D00080B586B00020059004900390029043F6E7
:1027E0000800C4F20200006800F00C0001460191EC
:1027F00040B1FFE7019804280AD0FFE701980828B4
:102800000CD04FE042F20040C0F2F40002904FE0E2
:1028100041F20020C0F27A00029049E043F6040041
:10282000C4F20200016801F03F0105910068400216
:10283000002813D5FFE743F60400C4F20200006845
:10284000C0F3881041F20021C0F27A01A0FB01011F
:10285000059A0023FDF775FD049012E043F604008D
:10286000C4F202000068C0F3881042F20041C0F2D6
:10287000F401A0FB0101059A0023FDF762FD04901D
:10288000FFE743F60400C4F20200006800F44031A0
:10289000022000EBD130039004980399B0FBF1F0D3
:1028A000029005E042F20040C0F2F4000290FFE71F
:1028B000029806B080BD000080B586B004900498F0
:1028C00020B9FFE701208DF8170050E30498007845
:1028D000C007002800F0A580FFE743F60800C4F217
:1028E0000200006800F00C00042813D0FFE743F654
:1028F0000800C4F20200006800F00C0008281ED195
:10290000FFE743F60400C4F202000068400200281A
:1029100015D5FFE743F60000C4F20200006800F49A
:1029200000310020B0EB514F08D0FFE70498406819
:1029300020B9FFE701208DF8170018E370E0FFE7EA
:1029400004984068B0F5803F09D1FFE743F60001E5
:10295000C4F20201086840F48030086020E0049866
:102960004068B0F5A02F0DD1FFE743F60001C4F297
:102970000201086840F480200860086840F4803054
:1029800008600CE043F60001C4F20201086820F47C
:1029900080300860086820F480200860FFE7FFE7C7
:1029A000FFE704984068E8B1FFE7FFF7FBFC0390FE
:1029B000FFE743F60000C4F20200006800F40031B3
:1029C0000020B0EB514F0CD1FFE7FFF7EBFC039970
:1029D000401A652804D3FFE703208DF81700C6E2EC
:1029E000E7E71CE0FFF7DEFC0390FFE743F600009B
:1029F000C4F20200006800F400310020B0EB514F37
:102A00000CD0FFE7FFF7CEFC0399401A652804D3EA
:102A1000FFE703208DF81700A9E2E7E7FFE7FFE7EC
:102A2000FFE7049800788007002840F19680FFE7D0
:102A300043F60800C4F20200006810F00C0F13D037
:102A4000FFE743F60800C4F20200006800F00C0043
:102A500008282CD1FFE743F60400C4F20200006806
:102A60004002002823D4FFE743F60000C4F202002E
:102A7000006800F002010020B0EB510F09D0FFE721
:102A80000498C068012804D0FFE701208DF81700E2
:102A90006DE243F60001C4F20201086820F0F8007C
:102AA000049A126940EAC2000860FFE754E0049803
:102AB000C06870B3FFE70021C4F24721012008601D
:102AC000FFF770FC0390FFE743F60000C4F202003A
:102AD000006800F002010020B0EB510F0CD1FFE7BD
:102AE000FFF760FC0399401A032804D3FFE7032093
:102AF0008DF817003BE2E7E743F60001C4F202015C
:102B0000086820F0F800049A126940EAC2000860E0
:102B100021E00021C4F2472100200860FFF742FCB9
:102B20000390FFE743F60000C4F20200006800F0E3
:102B300002010020B0EB510F0CD0FFE7FFF732FC91
:102B40000399401A032804D3FFE703208DF81700E8
:102B50000DE2E7E7FFE7FFE7FFE7049800780007EB
:102B600000284BD5FFE70498406918B3FFE740F60B
:102B70008061C4F2472101200860FFF713FC039035
:102B8000FFE743F67400C4F20200006800F002019F
:102B90000020B0EB510F0CD1FFE7FFF703FC0399C6
:102BA000401A032804D3FFE703208DF81700DEE165
:102BB000E7E722E040F68061C4F247210020086088
:102BC000FFF7F0FB0390FFE743F67400C4F2020046
:102BD000006800F002010020B0EB510F0CD0FFE7BD
:102BE000FFF7E0FB0399401A032804D3FFE7032013
:102BF0008DF81700BBE1E7E7FFE7FFE704980078EF
:102C00004007002840F1CE80FFE700208DF8070044
:102C100043F64000C4F202000068C000002815D44A
:102C2000FFE7FFE70020009043F64000C4F20200F7
:102C3000016841F080510160006800F08050009010
:102C40000098FFE701208DF80700FFE747F200003A
:102C5000C4F200000068C005002822D4FFE747F254
:102C60000001C4F20001086840F480700860FFF7BA
:102C700099FB0390FFE747F20000C4F200000068F0
:102C8000C00500280CD4FFE7FFF78CFB0399401A1E
:102C9000032804D3FFE703208DF8170067E1EAE774
:102CA000FFE7FFE704988068012809D1FFE743F6B2
:102CB0007001C4F20201086840F0010008601FE0E2
:102CC0000498806805280DD1FFE743F67001C4F22F
:102CD0000201086840F004000860086840F0010044
:102CE00008600CE043F67001C4F20201086820F0AD
:102CF00001000860086820F004000860FFE7FFE7B3
:102D0000FFE704988068F8B1FFE7FFF74BFB0390FB
:102D1000FFE743F67000C4F20200006800F0020111
:102D20000020B0EB510F0ED1FFE7FFF73BFB0399FB
:102D3000401A41F28931884204D3FFE703208DF81D
:102D4000170014E1E5E71EE0FFF72CFB0390FFE717
:102D500043F67000C4F20200006800F00201002097
:102D6000B0EB510F0ED0FFE7FFF71CFB0399401AA1
:102D700041F28931884204D3FFE703208DF8170020
:102D8000F5E0E5E7FFE79DF80700012809D1FFE737
:102D900043F64001C4F20201086820F08050086048
:102DA000FFE7FFE704988069002800F0DC80FFE778
:102DB00043F60800C4F20200006800F00C00082886
:102DC00000F08580FFE70498806902285CD1FFE766
:102DD0006021C4F2472100200860FFF7E3FA039066
:102DE000FFE743F60000C4F20200006800F0007143
:102DF0000020B0EB516F0CD0FFE7FFF7D3FA039937
:102E0000401A032804D3FFE703208DF81700AEE033
:102E1000E7E70499C869D1F820C04B6A8A6A40EA9A
:102E20000C0040EA8310D2034FF6FF739A43A2F5D9
:102E300080321043C96A40EA016043F60401C4F2DB
:102E4000020108606021C4F2472101200860FFF7F9
:102E5000A9FA0390FFE743F60000C4F202000068FD
:102E600000F000710020B0EB516F0CD1FFE7FFF7CD
:102E700099FA0399401A032804D3FFE703208DF839
:102E8000170074E0E7E721E06021C4F24721002049
:102E90000860FFF787FA0390FFE743F60000C4F2EB
:102EA0000200006800F000710020B0EB516F0CD000
:102EB000FFE7FFF777FA0399401A032804D3FFE7E7
:102EC00003208DF8170052E0E7E7FFE74AE0049897
:102ED0008069012804D1FFE701208DF8170046E042
:102EE00043F60400C4F2020000680290049880696E
:102EF000012831D0FFE7029800F480000499C969E5
:102F0000884229D1FFE7029800F03F000499096A3E
:102F1000884221D1FFE7029847F6C0710840049922
:102F2000496AB0EB811F17D1FFE7029800F44030E7
:102F30000499896AC9034FF6FF729143A1F5803164
:102F4000884209D1FFE7029800F070600499C96ACD
:102F5000B0EB016F04D0FFE701208DF8170006E009
:102F6000FFE7FFE7FFE700208DF81700FFE79DF878
:102F7000170006B080BD000080B582B001900198B6
:102F800003F07AFE02B080BD81B0009001B07047BE
:102F900081B0009001B0704785B003900291FFE7C7
:102FA000039890F83C00012804D1FFE702208DF837
:102FB00013007EE00399012081F83C00FFE7FFE762
:102FC0000399022081F83D00039800684068019051
:102FD0000398006880680090019820F070000190CC
:102FE00002980168019808430190019803990968C3
:102FF0004860039800680021C4F2010188423CD077
:10300000FFE703980068B0F1804F36D0FFE70398E0
:10301000006840F20041C4F2000188422DD0FFE771
:103020000398006840F60001C4F20001884224D0F1
:10303000FFE70398006840F60041C4F200018842AF
:103040001BD0FFE70398006840F20041C4F2010181
:10305000884212D0FFE70398006844F20001C4F2EE
:103060000101884209D0FFE70398006841F600019A
:10307000C4F2000188420ED1FFE7009820F08000E2
:1030800000900298416800980843009000980399C6
:1030900009688860FFE70399012081F83D00FFE798
:1030A0000399002081F83C00FFE700208DF8130011
:1030B000FFE79DF8130005B07047000080B582B0AF
:1030C0000090009820B9FFE701208DF807003FE04D
:1030D000009890F83D0040B9FFE70099002081F882
:1030E0003C00009800F038F8FFE70099022081F8D2
:1030F0003D00009951F8040B03F05CFE009901209B
:1031000081F84600FFE70099012081F83E00009910
:1031100081F83F00009981F84000009981F8410052
:10312000FFE7FFE70099012081F84200009981F84C
:103130004300009981F84400009981F84500FFE7B9
:103140000099012081F83D0000208DF80700FFE77D
:103150009DF8070002B080BD80B584B0039003984D
:10316000006840F60041C4F20001884212D1FFE736
:10317000FFE70020029043F64000C4F2020001681D
:1031800041F008010160006800F008000290029818
:10319000FFE724E00398006841F20001C4F2000157
:1031A00088421BD1FFE7FFE70020019043F6400073
:1031B000C4F20200016841F010010160006800F0F3
:1031C000100001900198FFE73620009001210022B5
:1031D000FFF780F90098FFF773F9FFE7FFE704B006
:1031E00080BD000083B00190019890F83D00012857
:1031F00004D0FFE701208DF80B006AE0019902205E
:1032000081F83D0001980168C86840F00100C8607D
:10321000019800680021C4F2010188423CD0FFE718
:1032200001980068B0F1804F36D0FFE70198006840
:1032300040F20041C4F2000188422DD0FFE701981E
:10324000006840F60001C4F20001884224D0FFE784
:103250000198006840F60041C4F2000188421BD08A
:10326000FFE70198006840F20041C4F20101884282
:1032700012D0FFE70198006844F20001C4F2010196
:10328000884209D0FFE70198006841F60001C4F2C6
:103290000001884212D1FFE701980068806800F0C1
:1032A000070000900098062807D0FFE70198016802
:1032B000086840F001000860FFE706E00198016837
:1032C000086840F001000860FFE700208DF80B005F
:1032D000FFE79DF80B0003B07047000080B586B093
:1032E0000490039100208DF80B00FFE7049890F8FC
:1032F0003C00012804D1FFE702208DF81700ABE065
:103300000499012081F83C00FFE7FFE704990220BF
:1033100081F83D000498006880680190019820F0D1
:1033200077000190019820F47F4001900198049962
:1033300009688860039800680090002872D0FFE751
:10334000009810286ED0FFE7009820286AD0FFE789
:103350000098302866D0FFE70098402855D0FFE756
:103360000098502837D0FFE70098602840D0FFE74A
:10337000009870280BD0FFE70098B0F5805F05D06B
:10338000FFE70098B0F5005F16D052E055E00498D2
:103390000068039B5A689968DB6803F0F9FD04989C
:1033A000006880680190019840F0770001900198D2
:1033B00004990968886040E004980068039B5A6893
:1033C0009968DB6803F0E4FD04980168886840F4BC
:1033D0008040886031E004980068039A5168D268A0
:1033E00003F0C2FF04980068502103F0EBFD24E0D5
:1033F00004980068039A5168D26803F0DDFF0498CE
:103400000068602103F0DEFD17E004980068039A6D
:103410005168D26803F0A8FF04980068402103F0C7
:10342000D1FD0AE0049800680399096803F0CAFD19
:1034300003E001208DF80B00FFE70499012081F8DB
:103440003D00FFE70499002081F83C00FFE79DF86C
:103450000B008DF81700FFE79DF8170006B080BD40
:1034600081B0009001B0704780B584B0039003989C
:103470000068C068029003980068006901909DF898
:1034800004008007002824D5FFE79DF80800800786
:1034900000281DD5FFE7039801686FF0020008615E
:1034A000039901200877039800688069800720B19C
:1034B000FFE70398FFF7D4FF06E0039800F016F942
:1034C000039800F00BFAFFE7039900200877FFE765
:1034D000FFE79DF804004007002825D5FFE79DF889
:1034E0000800400700281ED5FFE7039801686FF029
:1034F0000400086103990220087703980068806936
:1035000010F4407F04D0FFE70398FFF7A9FF06E01F
:10351000039800F0EBF8039800F0E0F9FFE7039957
:1035200000200877FFE7FFE79DF804000007002868
:1035300024D5FFE79DF80800000700281DD5FFE708
:10354000039801686FF00800086103990420087768
:1035500003980068C069800720B1FFE70398FFF770
:103560007FFF06E0039800F0C1F8039800F0B6F979
:10357000FFE7039900200877FFE7FFE79DF80400C5
:10358000C006002825D5FFE79DF80800C0060028E2
:103590001ED5FFE7039801686FF0100008610399DA
:1035A0000820087703980068C06910F4407F04D0B1
:1035B000FFE70398FFF754FF06E0039800F096F842
:1035C000039800F08BF9FFE7039900200877FFE7E5
:1035D000FFE79DF80400C00778B1FFE79DF80800F9
:1035E000C00748B1FFE7039801686FF00100086168
:1035F000039800F05DFAFFE7FFE79DF8040000067E
:10360000002810D5FFE79DF808000006002809D51E
:10361000FFE7039801686FF0800008610398FFF7E7
:10362000B3FCFFE7FFE79DF804004006002810D533
:10363000FFE79DF808004006002809D5FFE703983A
:1036400001686FF040000861039800F043FAFFE75B
:10365000FFE79DF804008006002810D5FFE79DF8DD
:1036600008008006002809D5FFE7039801686FF07D
:10367000200008610398FFF78BFCFFE7FFE704B029
:1036800080BD000080B588B00790002006900590AE
:103690000490039002900798006840F60041C4F23D
:1036A0000001884220D1FFE7FFE70020019043F6A8
:1036B0003000C4F20200016841F0010101600068BD
:1036C00000F0010001900198FFE70F200290022016
:1036D000039000210491059106900020C4F202009D
:1036E00002A9FEF753FCFFE708B080BD81B000904F
:1036F00001B0704780B586B004900391029200201B
:103700008DF80700FFE7049890F83C00012804D1E9
:10371000FFE702208DF8170089E00499012081F865
:103720003C00FFE7FFE7029800900C2800F2708051
:103730000099DFE801F0076D6D6D206D6D6D3A6DDC
:103740006D6D530004980068039903F051FC0498D0
:103750000168886940F008008861049801688869F8
:1037600020F0040088610398026904980168886960
:103770001043886150E004980068039903F0AEFCA0
:1037800004980168886940F40060886104980168C1
:10379000886920F480608861039802690498016850
:1037A000886940EA0220886136E00498006803993D
:1037B00003F00EFD04980168C86940F00800C86174
:1037C00004980168C86920F00400C8610398026980
:1037D00004980168C8691043C8611DE00498006836
:1037E000039903F06FFD04980168C86940F4006014
:1037F000C86104980168C86920F48060C8610398B2
:10380000026904980168C86940EA0220C86103E0BF
:1038100001208DF80700FFE7FFE70499002081F8F9
:103820003C00FFE79DF807008DF81700FFE79DF8C3
:10383000170006B080BD000080B582B000900098EF
:1038400020B9FFE701208DF807003FE0009890F8CD
:103850003D0040B9FFE70099002081F83C00009846
:1038600000F038F8FFE70099022081F83D00009948
:1038700051F8040B03F09EFA0099012081F84600EC
:10388000FFE70099012081F83E00009981F83F0090
:10389000009981F84000009981F84100FFE7FFE7B7
:1038A0000099012081F84200009981F843000099B5
:1038B00081F84400009981F84500FFE70099012054
:1038C00081F83D0000208DF80700FFE79DF8070014
:1038D00002B080BD81B0009001B0704781B000900F
:1038E00001B0704780B58CB00A900991099828B949
:1038F000FFE70A9890F83E0007901CE0099804281A
:1039000005D1FFE70A9890F83F00069010E009986B
:10391000082805D1FFE70A9890F84000059004E0D8
:103920000A9890F841000590FFE705980690FFE798
:1039300006980790FFE70798012804D0FFE70120C9
:103940008DF82F00AFE0099828B9FFE70A99022007
:1039500081F83E001EE00998042806D1FFE70A9985
:10396000022081F83F00049012E00998082806D14F
:10397000FFE70A99022081F84000039005E00A99C8
:10398000022081F841000390FFE703980490FFE7CD
:103990000498FFE70A98006809990122019203F050
:1039A000DBFA01980A9909680022C4F201029142E7
:1039B00002900CD0FFE70A9800684FF60041CBF662
:1039C000FE710844B0FA80F040090290FFE70298C7
:1039D000C00738B1FFE70A980168486C40F400401E
:1039E0004864FFE70A9800680021C4F20101884298
:1039F0003CD0FFE70A980068B0F1804F36D0FFE76F
:103A00000A98006840F20041C4F2000188422DD0BB
:103A1000FFE70A98006840F60001C4F200018842FE
:103A200024D0FFE70A98006840F60041C4F2000184
:103A300088421BD0FFE70A98006840F20041C4F2B8
:103A40000101884212D0FFE70A98006844F20001A1
:103A5000C4F20101884209D0FFE70A98006841F6E4
:103A60000001C4F20001884212D1FFE70A98006801
:103A7000806800F0070008900898062807D0FFE744
:103A80000A980168086840F001000860FFE706E056
:103A90000A980168086840F001000860FFE700200C
:103AA0008DF82F00FFE79DF82F000CB080BD0000BF
:103AB00080B582B001900198006841F20001C4F223
:103AC0000001884203D1FFE701F022FBFFE702B0CB
:103AD00080BD000081B0009001B0704780B586B015
:103AE00004900391ADF80A20049890F84200202831
:103AF00048D1FFE7039820B1FFE7BDF80A0020B9DD
:103B0000FFE701208DF8170040E0049901200863C9
:103B100004990020486304980399BDF80A2003F033
:103B20006BFF8DF809000498006B012821D1FFE795
:103B3000FFE7002001900498006800680190049855
:103B40000068406801900198FFE7FFE7FFE70498ED
:103B5000006850E8030F40F010000090FFE7009964
:103B60000498026842E803100028F0D1FFE7FFE75D
:103B700003E001208DF80900FFE79DF809008DF8AA
:103B8000170003E002208DF81700FFE79DF81700EB
:103B900006B080BD80B586B00590ADF812100598CE
:103BA000006844F60001C4F20001884201D0FFE73A
:103BB000A0E0BDF81200002800F09180FFE7BDF8FA
:103BC0001200B0F5807F04D9FFE74FF480700290B7
:103BD00003E0BDF812000290FFE70298ADF8100074
:103BE000BDF81200B0F5807F07D9FFE740F6DC3161
:103BF000C2F2000101200870FFE740F6DD30C2F29A
:103C00000000007803283AD8FFE740F6DE30C2F221
:103C10000000007840F6DD31C2F200010978084466
:103C20008DF80F009DF80F00042806D3FFE79DF8DC
:103C30000F0004388DF80F00FFE79DF80F1040F2D9
:103C4000DC70C2F2000000EB0120BDF8102040F251
:103C5000D461C2F20001FCF717FCBDF810009DF81A
:103C60000F2040F2D471C2F2000121F8120040F698
:103C7000DD31C2F200010878013008702EE040F614
:103C8000DE30C2F20000019000788DF80F009DF840
:103C90000F1040F2DC70C2F2000000EB0120BDF812
:103CA000102040F2D461C2F20001FCF7EDFBBDF838
:103CB00010009DF80F2040F2D471C2F2000121F8EB
:103CC00012009DF80F0002F05BFD0199087040F6AC
:103CD000DC31C2F2000101200870FFE7FFE702F0CB
:103CE0000FFE38B1FFE740F6DF31C2F200010120DC
:103CF0000870FFE706B080BD80B582B001900198E2
:103D0000006844F60001C4F20001884201D0FFE7D8
:103D100035E040F6DC31C2F200010120087040F6C7
:103D2000E250C2F200000088F0B1FFE7019890F87D
:103D30004100202818D1FFE740F6E251C2F200010D
:103D40000020088040F6E451C2F200010120087012
:103D500002F0DCFE38B1FFE740F6E451C2F20001A8
:103D600001200870FFE7FFE702F0CAFD38B1FFE766
:103D700040F6DF31C2F2000101200870FFE702B017
:103D800080BD000080B592B0119011980068006865
:103D9000109011980068C0680F90119800684069F1
:103DA0000E9000200D900C90109800F00F000D90D8
:103DB0000D9888B9FFE79DF84000800600280AD5D5
:103DC000FFE79DF83C008006002804D5FFE7119826
:103DD00003F0C0FC02E2FFE70D98002800F0C2806B
:103DE000FFE79DF83800C00738B9FFE7BDF83C0091
:103DF00010F4907F00F0B680FFE79DF84000C00708
:103E000058B1FFE79DF83D00C00730B1FFE71199B9
:103E1000486C40F001004864FFE79DF8400040070F
:103E200000280BD5FFE79DF83800C00730B1FFE749
:103E30001199486C40F002004864FFE79DF840008B
:103E4000800700280BD5FFE79DF83800C00730B188
:103E5000FFE71199486C40F004004864FFE79DF8C3
:103E600040000007002811D5FFE79DF83C008006C0
:103E7000002805D4FFE79DF83800C00730B1FFE700
:103E80001199486C40F008004864FFE71198406CB5
:103E9000002866D0FFE79DF84000800600280AD57C
:103EA000FFE79DF83C008006002804D5FFE7119845
:103EB00003F050FCFFE7119800684069C0F38010E0
:103EC0000C901198406C0007002804D4FFE70C9870
:103ED00000283ED0FFE7119803F0C2FB119800685C
:103EE0004069400600282FD5FFE7FFE7FFE711985C
:103EF000006850E8050F20F040000B90FFE70B9999
:103F00001198026842E805100028F0D1FFE7FFE7AA
:103F10001198C06B98B1FFE71198C16B47F20D4043
:103F2000C0F6000008651198C06BFDF741FD28B18F
:103F3000FFE71198C06B016D8847FFE703E0119818
:103F4000FFF7DAFEFFE703E01198FFF7D5FEFFE782
:103F500006E01198FFF7D0FE119900204864FFE7B2
:103F6000FFE73BE11198006B012840F01781FFE764
:103F70009DF84000C006002840F11081FFE79DF841
:103F80003C00C006002840F10981FFE7FFE7002060
:103F90000A901198006800680A90119800684068BB
:103FA0000A900A98FFE711980068406940060028C7
:103FB00040F19A80FFE71198C06B00684068ADF847
:103FC0002600BDF82600002875D0FFE7BDF82600C2
:103FD0001199898D88426EDAFFE7BDF826001199A4
:103FE000C8851198C06BC069B0F5807F58D0FFE7D5
:103FF000FFE7FFE71198006850E8030F20F4807096
:104000000890FFE708991198026842E80310002819
:10401000F0D1FFE7FFE7FFE7FFE71198006850E8FE
:10402000050F20F001000790FFE70799119802683B
:1040300042E805100028F0D1FFE7FFE7FFE7FFE7C0
:104040001198006850E8050F20F040000690FFE747
:1040500006991198026842E805100028F0D1FFE7A0
:10406000FFE71199202081F8420011990020086390
:10407000FFE7FFE71198006850E8030F20F01000F9
:104080000590FFE705991198026842E8031000289F
:10409000F0D1FFE7FFE71198C06BFDF713FCFFE7D6
:1040A0001199022048631198818DC28D891A89B2B5
:1040B000FFF770FD17E0BDF826001199898D884241
:1040C00010D1FFE71198C06BC069B0F5807F08D1AF
:1040D000FFE71199022048631198818DFFF75AFD7F
:1040E000FFE7FFE7FFE779E01199888DC98D401A56
:1040F000ADF812001198C08D00284ED0FFE7BDF832
:104100001200002849D0FFE7FFE7FFE71198006899
:1041100050E8030F20F490700390FFE70399119883
:10412000026842E803100028F0D1FFE7FFE7FFE74D
:10413000FFE71198006850E8050F20F00100029099
:10414000FFE702991198026842E805100028F0D1B3
:10415000FFE7FFE71199202081F842001199002024
:104160000863FFE7FFE71198006850E8030F20F0AD
:1041700010000190FFE701991198026842E80310CE
:104180000028F0D1FFE7FFE711990220486311985A
:10419000BDF81210FFF7FEFCFFE71FE09DF840009E
:1041A000000600280AD5FFE79DF83C00000600281D
:1041B00004D5FFE7119803F0B7FC0FE09DF840002D
:1041C000400600280AD5FFE79DF83C00400600287D
:1041D00004D5FFE7119803F08DFAFFE712B080BD18
:1041E00080B582B00090009820B9FFE701208DF8DB
:1041F000070040E00098806908B1FFE700E0FFE7B2
:10420000009890F8410040B9FFE70099002081F83C
:104210004000009800F034F8FFE70099242081F86E
:10422000410000980168C86820F40050C8600098F8
:1042300003F044FB00980168086920F4904008618D
:1042400000980168486920F02A00486100980168D8
:10425000C86840F40050C860009900204864009A83
:10426000202182F84110009A82F842100099486398
:104270008DF80700FFE79DF8070002B080BD000041
:1042800080B58CB00B9000200A90099008900790A0
:1042900006900B98006844F60001C4F200018842C1
:1042A00040F09380FFE7FFE70020059043F64000D1
:1042B000C4F20200016841F480210160006800F44A
:1042C000802005900598FFE7FFE70020049043F663
:1042D0003000C4F20200016841F002010160006890
:1042E00000F0020004900498FFE74FF4406006904D
:1042F00002200790002002900890032009900720D8
:104300000A9040F20040C4F2020006A9FDF73EFE0A
:10431000029940F63C60C2F20000039046F2280287
:10432000C4F2020202604FF0006242608160C1602C
:104330004FF48062026141618161C1610162416249
:10434000FDF7E8FC18B1FFE7FDF7B8FAFFE7FFE774
:104350000B9840F63C61C2F20001C1630B98886380
:10436000FFE740F69C60C2F20000019046F258015F
:10437000C4F2020101604FF00061416040218160A0
:104380000021C1604FF48062026141618161C161BD
:1043900001624162FDF7BEFC18B1FFE7FDF78EFA3E
:1043A000FFE7FFE70B9840F69C61C2F200018163D2
:1043B0000B988863FFE72720009000221146FEF744
:1043C00089F80098FEF77CF8FFE70CB080BD00008C
:1043D00081B0009001B0704781B0009001B070478B
:1043E00080B586B004900391ADF80A20049890F847
:1043F000410020286AD1FFE7039820B1FFE7BDF80C
:104400000A0020B9FFE701208DF8170062E0039849
:1044100004990862BDF80A0004998884BDF80A006E
:104420000499C884049900204864049A212182F8E0
:10443000411004998A6B47F2CD51C0F60001D16357
:1044400004998A6B47F24961C0F60001116404992E
:104450008A6B47F22941C0F60001D1640499896B47
:10446000086503A8019004980268806B01990968A7
:104470000432BDF80A30FDF705FD58B1FFE7049995
:10448000102048640499202081F8410001208DF813
:1044900017001FE0049801686FF040000860FFE714
:1044A000FFE70498006850E8050F40F08000009096
:1044B000FFE700990498026842E805100028F0D14F
:1044C000FFE7FFE700208DF8170003E002208DF8DA
:1044D0001700FFE79DF8170006B080BD80B584B0D7
:1044E00002900298006844F60001C4F2000188427C
:1044F00001D0FFE766E0EFF310800390039801908E
:1045000072B640F6E250C2F200000088ADF8020038
:10451000BDF8020058B3FFE7BDF8020040F6E051D5
:10452000C2F200010988884221DCFFE740F6E6502C
:10453000C2F200000188BDF8022011440180008809
:10454000B0F5007F09D3FFE740F6E651C2F2000163
:104550000888A0F500700880FFE740F6E051C2F23D
:1045600000010888BDF80220801A088016E0BDF816
:10457000020090B1FFE740F6E651C2F200010020D0
:10458000088040F6E051C2F20001088040F6E45194
:10459000C2F2000101200870FFE7FFE740F6E25198
:1045A000C2F2000100200880019802F0D3F902F065
:1045B000ADFA38B1FFE740F6E451C2F20001012044
:1045C0000870FFE704B080BD81B0009001B0704773
:1045D00080B582B040F27403C2F200030193502010
:1045E0003F21022200F04AF90198018840F6D87074
:1045F000C2F20000016090ED000AB8EEC00A9FED23
:10460000211A20EE010A40F27800C2F2000090ED7B
:10461000001A9FED1D2A20EE020A30EE410A9FED9E
:104620001B1A30EE010A40F27000C2F2000080ED69
:10463000000A90ED000AB4EE410AF1EE10FA0DDB2B
:10464000FFE740F27000C2F2000090ED000A9FED1B
:10465000101A30EE010A80ED000AFFE740F2700008
:10466000C2F2000090ED000A9FED091A30EE010A37
:1046700080ED000A90ED000AB1EE400A80ED000ADC
:1046800002B080BD00000038000034430000B44395
:104690000000B4C380B582B000F05EF86420FDF77E
:1046A00053FC40F27403C2F20003019350203F21F7
:1046B000022200F0E3F80198018840F6DC70C2F2B3
:1046C0000000016090ED000AB8EEC00A9FED071AE5
:1046D00020EE010A9FED061A20EE010A40F2780052
:1046E000C2F2000080ED000A02B080BD0000003878
:1046F00000003443FFE7FEE780B584B040F280213C
:10470000C4F2412100200860FFE740F60001C4F236
:104710000201086820F00C000860086840F00400FE
:104720000860FFE740F28421C4F241210020039099
:1047300008600120019003F0AFFA019840F2802157
:10474000C4F241210291086003F0A6FA029903988D
:10475000086004B080BD000040F28021C4F2412115
:104760000120086040F28421C4F2412108607047B2
:1047700080B582B040F28021C4F24121002008605F
:10478000FFE740F60001C4F20201086820F00C00C7
:104790000860086840F004000860FFE740F28421E8
:1047A000C4F2412101200090086003F075FA0098DE
:1047B00040F28021C4F241210191086003F06CFABB
:1047C00001990020086002B080BD000080B584B06F
:1047D0008DF80F0000208DF80D0040F28421C4F206
:1047E000412101200860FFE740F60001C4F2020108
:1047F000086820F00C000860FFE700208DF80E002C
:10480000FFE79DF80E0007282ADCFFE740F2802131
:10481000C4F241210191002008600120029003F0C0
:104820003BFA0199029808609DF80D0040008DF850
:104830000D0040F20420C4F24120006830B1FFE7CF
:104840009DF80D0001308DF80D00FFE7012003F009
:1048500023FAFFE79DF80E0001308DF80E00D0E737
:104860009DF80F0018B9FFE7FFF782FF02E0FFF79E
:1048700043FFFFE79DF80D0004B080BD80B582B016
:104880008DF806008DF805108DF80420009300F0D7
:104890009BF89DF806004000C0B200F04BF800F015
:1048A000EFF830B1FFE700F0BDF801208DF8070008
:1048B0003BE09DF8050000F03DF800F0E1F820B97C
:1048C000FFE7012003F0E8F9FFE700F07DF89DF82D
:1048D000060040000130C0B200F02CF800F0D0F823
:1048E000FFE79DF80400D0B1FFE79DF80400012820
:1048F00006D1FFE70020FFF769FF0099087005E087
:104900000120FFF763FF00990870FFE79DF804009E
:1049100001388DF80400009801300090E1E700F0C4
:1049200081F800208DF80700FFE79DF8070002B02E
:1049300080BD000080B584B08DF80F00FFE740F621
:104940000001C4F20201086820F00C000860086849
:1049500040F004000860FFE740F28021C4F24121EA
:10496000002008608DF80E00FFE79DF80E00072874
:1049700027DCFFE79DF80F00C00940F28421C4F254
:10498000412108609DF80F0040008DF80F000120C4
:10499000029003F081F9029840F28021C4F2412193
:1049A0000191086003F078F9019A029800211160E2
:1049B00003F072F9FFE79DF80E0001308DF80E004C
:1049C000D3E704B080BD000080B584B0FFE740F6B7
:1049D0000001C4F20201086820F00C0008600868B9
:1049E00040F004000860FFE740F28421C4F2412156
:1049F00000910120086040F28021C4F2412102911F
:104A000008600220019003F047F9009A0198002104
:104A10000391116003F040F902990398086004B013
:104A200080BD000080B584B0FFE740F60001C4F20D
:104A30000201086820F00C000860086840F00400DB
:104A40000860FFE740F28021C4F24121019100207B
:104A5000086040F28421C4F24121029108600120E3
:104A6000039003F019F901990398086003F014F911
:104A700002990398086003F00FF904B080BD0000AC
:104A800080B582B000208DF80600FFE740F60001F7
:104A9000C4F20201086820F00C000860FFE740F251
:104AA0008421C4F2412101200090086003F0F4F851
:104AB000009840F28021C4F24121086003F0ECF834
:104AC000FFE740F20420C4F24120006888B1FFE70C
:104AD0009DF8060001308DF806009DF80600FB28C1
:104AE00006DBFFE7FFF79EFF01208DF8070009E0D6
:104AF000E7E740F28021C4F24121002008608DF8F0
:104B00000700FFE79DF8070002B080BD80B584B0C4
:104B1000FFE70020039043F63000C4F20200016872
:104B200041F400110160006800F400100390039844
:104B3000FFE70C200090002201921146FDF7CAFC0D
:104B40000098FDF7BDFC019A0E2002901146FDF77A
:104B5000C1FC0298FDF7B4FC04B080BD80B598B0EC
:104B6000002017901690159014901390FFE70020E6
:104B7000129043F63000C4F20200016841F02001B7
:104B80000160006800F0200012901298FFE7FFE734
:104B90000020119043F63000C4F20200016841F099
:104BA00080010160006800F0800011901198FFE71B
:104BB000FFE70020109043F63000C4F202000168C5
:104BC00041F004010160006800F0040010901098AA
:104BD000FFE7FFE700200F9043F63000C4F2020029
:104BE000016841F001010160006800F001000F90D0
:104BF0000F98FFE7FFE700200E9043F63000C4F265
:104C00000200016841F040010160006800F04000CE
:104C10000E900E98FFE7FFE700200D9043F630005E
:104C2000C4F20200016841F002010160006800F076
:104C300002000D900D98FFE7FFE700200C9043F66F
:104C40003000C4F20200016841F008010160006810
:104C500000F008000C900C98FFE7FFE700200B9095
:104C600043F63000C4F20200016841F01001016017
:104C7000006800F010000B900B98FFE741F2004035
:104C8000C4F2020002904EF2180101910022099232
:104C9000FDF770FB099A40F60000C4F20200049090
:104CA00003210391FDF766FB099A41F60000C4F267
:104CB00002000790F1210591FDF75CFB019A029833
:104CC000099913920122089214921591169113A931
:104CD0000A91FDF75BF9039B0498089A0A991393CC
:104CE000112314931592022206921692FDF74EF9A3
:104CF000DDF814C00798089B099A0A99CDF84CC0B2
:104D0000149315921692FDF741F9DDF818C0079833
:104D1000089A099B0A99CDF84CC014931592FDF797
:104D200035F909980A99C02213921490159040F60B
:104D30000040C4F20200FDF729F90798099A0A9980
:104D40004FF40C43139314921592FDF71FF9099831
:104D50000A994FF4407213921490159040F200405B
:104D6000C4F20200FDF712F9089A09980A99139201
:104D70001490159041F20000C4F20200FDF706F90C
:104D800018B080BD80B58EB0002100910D910C91BE
:104D90000B910A910991089107910691059104914F
:104DA00003910291019140F6FC60C2F2000040F6CE
:104DB0000042C4F20002026003224260816040F2BD
:104DC000E732C26001618161FEF778F918B1FFE74F
:104DD000FCF774FDFFE74FF480500A9040F6FC604A
:104DE000C2F200000AA9FEF779FA18B1FFE7FCF752
:104DF00065FDFFE740F6FC60C2F20000FEF71CFD17
:104E000018B1FFE7FCF75AFDFFE700200890099072
:104E100040F6FC60C2F2000008A9FEF7BDF818B128
:104E2000FFE7FCF74BFDFFE76020019000220292B4
:104E30000392059240F6FC60C2F2000001A9FEF761
:104E400059FC18B1FFE7FCF739FDFFE740F6FC60BD
:104E5000C2F2000001A90422FEF74CFC18B1FFE7E2
:104E6000FCF72CFDFFE740F6FC60C2F2000001A950
:104E70000822FEF73FFC18B1FFE7FCF71FFDFFE734
:104E800040F6FC60C2F2000001A90C22FEF732FCE1
:104E900018B1FFE7FCF712FDFFE740F6FC60C2F235
:104EA0000000FEF7EFFB0EB080BD000080B582B0C1
:104EB00000210191009140F64470C2F2000041F2DD
:104EC0000002C4F20002026041F2670242608160A7
:104ED0006322C2608161FEF7F1F818B1FFE7FCF7C9
:104EE000EDFCFFE700200090019040F64470C2F214
:104EF00000006946FEF750F818B1FFE7FCF7DEFC4A
:104F0000FFE702B080BD000080B582B040F68C7033
:104F1000C2F20000019044F60001C4F200010160F9
:104F20004FF4E131416000218160C16001610C22D8
:104F300042618161C161FFF753F918B1FFE7FCF7E6
:104F4000BDFCFFE702B080BDFFE7FEE782B08DED5C
:104F5000000A9DED000AB5EE400AF1EE10FA03DA00
:104F6000FFE70020019011E09DED000A9FED091A76
:104F7000B4EE410AF1EE10FA05DDFFE70020C4F2BD
:104F80007A40019002E000980190FFE79DED010A50
:104F900002B0704700007A4480B582B040F27C00D5
:104FA000C2F200000190B3EE040A9FED101ADFED8B
:104FB000101A9FED102AF0EE410A01F0EFFA019964
:104FC000FA2008850020C4F29630C86200200863E9
:104FD000486381F8380081F8390081F83A000122ED
:104FE00081F83B2081F83C0002B080BD0000000049
:104FF0000000C8420000964381B08DF803009DF880
:105000000300002818BF012040F27C01C2F2000119
:1050100081F83A0001B0704780B584B0ADF80E0059
:105020008DED020ABDF90E00B0F1FF3F04DCFFE791
:105030000020ADF80E00FFE7BDF90E00B0F57A7F55
:1050400005DDFFE74FF47A70ADF80E00FFE7BDF81D
:105050000E0040F27C01C2F20001019108859DED35
:10506000020AFFF773FF019981ED0B0AC86A4862D3
:1050700004B080BD80B584B08DED030ACDED020A89
:105080008DED011A9DED030ADDED020A9DED011A79
:1050900040F27C00C2F2000090ED0B2ADFED021A14
:1050A00001F07CFA04B080BD0000C84281B08DF8E8
:1050B00003009DF903100120002948BF4FF0FF3085
:1050C00040F27C01C2F2000181F83B0001B0704760
:1050D00080B582B040F27C00C2F20000019001F085
:1050E000C1FA0199012081F83C0002B080BD0000A6
:1050F00080B540F27C00C2F20000002180F83C1034
:1051000080F83910416301F0ADFA00F0C1FB80BDB9
:1051100080B586B000208DF81500ADF8120000F0C3
:10512000A5F8014640F27C00C2F2000080F8381079
:1051300090F83A0040B1FFE740F27C00C2F2000074
:1051400090F83800029009E040F27C00C2F20000C2
:1051500090F8380080F0FF000290FFE702988DF889
:10516000170000208DF81600FFE79DF816000728AD
:1051700022D8FFE79DF817009DF81610884000061A
:10518000002812D5FFE79DF8161048F67C10C0F6EF
:1051900000004156BDF812000844ADF812009DF819
:1051A000150001308DF81500FFE7FFE79DF81600A8
:1051B00001308DF81600D8E740F27C00C2F2000002
:1051C00090F83C0008B9FFE74BE09DF8150040B9A6
:1051D000FFE740F27C01C2F20001002081F83900B3
:1051E0003FE040F27C00C2F200000090012180F814
:1051F0003910BDF9121000EE101AB8EEC00A9DF871
:10520000151001EE101AB8EE411A80EE010A80ED79
:105210000C0AD0ED0C0A9FED140A8DED010A01F085
:1052200053F90098DDED010A8DED030A90F93B106A
:1052300000EE101AB8EEC01A9DED030A20EE010A26
:105240008DED030A03994163B0F9280000EE100ABE
:10525000B8EEC00A9DED031A00F03AFA00F052FBD6
:10526000FFE706B080BD00BF0000000080B582B03F
:1052700000208DF8070040F60040C4F202004021F3
:10528000FDF760F8012807D1FFE79DF8070040F01F
:1052900080008DF80700FFE740F60040C4F20200EE
:1052A0008021FDF74FF8012807D1FFE79DF807009F
:1052B00040F040008DF80700FFE741F60000C4F21F
:1052C00002004FF48061FDF73DF8012807D1FFE7A8
:1052D0009DF8070040F020008DF80700FFE741F639
:1052E0000000C4F202004FF40061FDF72BF8012822
:1052F00007D1FFE79DF8070040F010008DF8070088
:10530000FFE741F60000C4F202004FF40041FDF750
:1053100019F8012807D1FFE79DF8070040F00800C1
:105320008DF80700FFE740F20040C4F202004FF49E
:105330008071FDF707F8012807D1FFE79DF8070006
:1053400040F004008DF80700FFE740F20040C4F28F
:1053500002004FF40071FCF7F5FF012807D1FFE7C9
:105360009DF8070040F002008DF80700FFE741F2CA
:105370000000C4F202000121FCF7E4FF012807D17C
:10538000FFE79DF8070040F001008DF80700FFE7F8
:105390009DF8070002B080BD80B582B0FDF702F82D
:1053A000019041F60000C4F202000221FCF7CAFF9E
:1053B000014640F2C400C2F200000170007840F2E1
:1053C000C501C2F200010870019840F2C001C2F2AA
:1053D00000010860019840F2BC01C2F200010860BF
:1053E00002B080BD80B584B0FCF7DCFF029041F6CE
:1053F0000000C4F202000221FCF7A4FF8DF80700B0
:105400009DF8070040F2C401C2F200010978884209
:105410000ED0FFE79DF8070040F2C401C2F2000180
:105420000870029840F2C001C2F200010860FFE774
:1054300040F2C400C2F20000007840F2C501C2F29E
:1054400000010978884230D0FFE7029840F2C0019D
:10545000C2F200010968401A142826D3FFE740F27F
:10546000C400C2F20000017840F2C500C2F20000A0
:105470000170007838B9FFE7029840F2BC01C2F22F
:105480000001086010E0029840F2BC01C2F2000185
:105490000968401A00900098C10801207C2988BF43
:1054A00002208DF80F0004E0FFE700208DF80F00C8
:1054B000FFE79DF80F0004B080BD000080B588B004
:1054C000ADF81E00ADF81C10ADF81A20ADF818307C
:1054D000BDF91E0000F0DEF8ADF81000BDF91C00AB
:1054E00000F0D8F8ADF81200BDF91A0000F0D2F8BB
:1054F000ADF81400BDF9180000F0CCF8ADF81600B6
:1055000001208DF80D00FFE79DF80D00042838D824
:10551000FFE79DF80D100DF10E0030F91100002885
:1055200008D4FFE79DF80D100DF10E0030F81100C2
:10553000019009E09DF80D100DF10E0030F81100FA
:10554000404280B20190FFE70198ADF80A009DF853
:105550000D00002100F04CF99DF80D000DF10E0139
:1055600031F9101000F0F6F89DF80D00BDF80A10A2
:1055700000F03EF9FFE79DF80D0001308DF80D00B9
:10558000C2E708B080BD000080B582B08DED000A92
:105590009DED000AB5EE400AF1EE10FA0FDBFFE7D1
:1055A0009DED000AB6EE001A30EE010ABDEEC00A0B
:1055B00010EE100A00F06EF8ADF806000EE09DED5A
:1055C000000ABEEE001A30EE010ABDEEC00A10EE6F
:1055D000100A00F05FF8ADF80600FFE7BDF906001D
:1055E00002B080BD80B582B040F6FC60C2F200001F
:1055F0000021FEF777F920B1FFE701208DF80700C1
:105600002EE040F6FC60C2F200000421FEF76AF9C9
:1056100020B1FFE701208DF8070021E040F6FC6093
:10562000C2F200000821FEF75DF920B1FFE701207A
:105630008DF8070014E040F6FC60C2F200000C2177
:10564000FEF750F920B1FFE701208DF8070007E0D1
:1056500000F05CF800F01CF900208DF80700FFE76F
:105660009DF8070002B080BD82B08DF807009DF85C
:1056700007100020009041B1FFE79DF807100020BF
:10568000052938BF01200090FFE7009800F00100D5
:1056900002B0704782B000900098B0F57A7F05DDC7
:1056A000FFE74FF47A70ADF806000DE0009810F5B2
:1056B0007A7F05DAFFE74FF61840ADF8060003E001
:1056C0000098ADF80600FFE7BDF9060002B070478C
:1056D00080B584B08DED030ACDED020A8DED011A7F
:1056E0009DED032A9DED024A32EE441A9DED013AEA
:1056F00031EE430A32EE042A72EE030A31EE031A47
:1057000072EE431A00F0ACF804B080BD81B0012005
:105710008DF80300FFE79DF80300042818D8FFE781
:105720009DF8032040F2BC11C2F20001002021F8D4
:1057300012009DF8032040F2C801C2F2000141F8B6
:105740002200FFE79DF8030001308DF80300E2E737
:1057500001B0704780B584B08DF80F00ADF80C1023
:105760009DF80F00FFF780FF08B9FFE73DE09DF8C7
:105770000F1048F68410C0F6000000EB011010383E
:105780000290BDF90C0030B9FFE700208DF807004A
:105790008DF806001AE0BDF90C00012804DBFFE7D4
:1057A0000298807B009006E00298807BB0FA80F03F
:1057B00040090090FFE700988DF807009DF807006A
:1057C000B0FA80F040098DF80600FFE702990868FA
:1057D00089889DF80720FCF7CDFD029988688989A2
:1057E0009DF80620FCF7C6FDFFE704B080BD000071
:1057F00082B08DF80700ADF804109DF8070001385D
:1058000001460091032828D80099DFE801F0020B37
:10581000141DBDF8040040F6FC61C2F200010968E5
:1058200088631BE0BDF8040040F6FC61C2F2000191
:105830000968486312E0BDF8040040F6FC61C2F25A
:1058400000010968C86309E0BDF8040040F6FC6186
:10585000C2F200010968086400E0FFE702B0704787
:1058600084B08DED030ACDED020A8DED011ACDED68
:10587000001A039840F2A811C2F200014860029891
:1058800088600198C8600098086104B07047000003
:1058900080B582B001208DF80700FFE79DF8070072
:1058A00004281CD8FFE79DF8072040F2A811C2F297
:1058B0000001002041F822009DF8070000EB800164
:1058C00040F2DC00C2F2000000EBC10000F0CAFEB2
:1058D000FFE79DF8070001308DF80700DEE70023A1
:1058E000184619461A46FFF7E9FD02B080BD0000D0
:1058F00040F2BC11C2F20001002048808880C880BC
:105900000881704780B584B0FFF7F2FF01208DF861
:105910000500FFE79DF80500042850D8FFE740F296
:10592000A410C2F20000007878B3FFE79DF80520CC
:1059300002EB820140F2DC00C2F2000000EBC10089
:1059400040F2A811C2F2000101EB820191ED000AC0
:105950009DF8052040F2BC11C2F2000131F912108D
:1059600001EE101AF8EEC10A9FED1B1A00F03CFD83
:105970008DED000A9DED000AFFF706FE9DF805205B
:105980000DF1060121F8120012E09DF8051040F219
:10599000A810C2F2000000EB810090ED000AFFF7B2
:1059A000F3FD9DF805200DF1060121F81200FFE737
:1059B000FFE79DF8050001308DF80500AAE7BDF965
:1059C0000800BDF90A10BDF90C20BDF90E30FFF733
:1059D00075FD04B080BD00BF0080BB4480B5A2B09F
:1059E00002A88021FAF795FD00208DF80700FFE757
:1059F0009DF8070007281FD8FFE79DF80700002142
:105A000000F0CAFA402002A9802200F025FB60B90C
:105A1000FFE79DF8071040F2C910C2F2000000EB4A
:105A2000C1108021FAF775FDFFE7FFE79DF8070039
:105A300001308DF80700DBE70021084600F0ACFAE2
:105A400022B080BD80B582B08DF8070000200DF136
:105A50000701012200F000FB02B080BD83B001907D
:105A60000091019890F90000002808D4FFE7019800
:105A700000780099086001208DF80B0099E00198EA
:105A8000007800F0E000C0281AD1FFE701984078C4
:105A9000B0B1FFE70198407800F0C00080280FD136
:105AA000FFE701980178407801F01F0100F03F0006
:105AB00040EA81100099086002208DF80B0078E020
:105AC0000198007800F0F000E0282AD1FFE7019863
:105AD000407830B3FFE70198807810B3FFE7019872
