:020000040800F2
:10000000B818002001030008C1A40008BD4E000874
:10001000A55A0008FD1700088DB400080000000074
:1000200000000000000000000000000035A50008EE
:10003000B91900080000000031A500088DA50008CE
:100040001B0300081B0300081B0300081B03000818
:100050001B0300081B0300081B0300081B03000808
:100060001B0300081B0300081B0300081B030008F8
:10007000011800081B030008111800081B030008E2
:100080001B0300081B0300081B0300081B030008D8
:100090001B0300081B0300081B030008BD19000810
:1000A0001B0300081B0300081B0300081B030008B8
:1000B0001B0300081B0300081B0300081B030008A8
:1000C0001B0300081B0300081B0300081B03000898
:1000D0001B0300081B0300081B0300087DB4000875
:1000E0001B0300081B0300081B0300081B03000878
:1000F0001B0300081B0300081B0300081B03000868
:100100001B0300081B0300081B0300081B03000857
:100110001B0300081B03000865A600081B0300085A
:100120001B0300081B0300081B0300081B03000837
:100130001B0300081B0300081B0300081B03000827
:100140001B0300081B0300081B0300081B03000817
:100150001B0300081B0300081B0300081B03000807
:100160001B0300081B0300081B0300081B030008F7
:100170001B0300081B0300081B030008000000000D
:100180001B0300081B03000800F002F800F0A8F8A9
:1001900014A696E8000CB244B344DA4501D100F04D
:1001A0009FF8BAE80F000FA696E83000A5EB04050B
:1001B00004EB0607AAEB0704A7F101074FEA1515A0
:1001C0004FEA3414A4F10104AC4201D300F088F8E2
:1001D00013F0010F18BFFB1A43F0010300F001F800
:1001E000DBE7184760C5000080C50000103A24BF57
:1001F00078C878C1FAD8520724BF30C830C144BF8C
:1002000004680C6070470000704700000023002461
:1002100000250026103A28BF78C1FBD8520728BF16
:1002200030C148BF0B6070476E2900F09F82702973
:1002300000F0F58366290BF0798665290BF0768648
:1002400067290BF0738661290BF0728603681B0A1D
:1002500028BF41F08001692900F04C82642900F038
:100260004982752900F046826F2900F0838378293E
:1002700000F0C183E92900F01D83E42900F01A830E
:10028000F52900F01783EF2900F08083F82900F0AA
:10029000C0830368DB0928BF41F08001632901F0B6
:1002A0003181732901F03681E32901F04181F3297D
:1002B00001F04681002070471FB50BF02AFE01F0C7
:1002C00099F90400002000210BF096FD401C6060AD
:1002D000002000210BF07AFDE0601FBD10B510BDBD
:1002E00001F05AF91146FFF7E7FF0BF05FF901F053
:1002F00037FA03B4FFF7F2FF03BC0BF029F9000053
:100300000948804709480047FEE7FEE7FEE7FEE7A9
:10031000FEE7FEE7FEE7FEE7FEE7FEE704480549E5
:10032000054A064B7047000051A6000889010008E5
:10033000B8120020B8180020B8140020B81400200B
:10034000704753EA020C00F069802DE9F04B4FF042
:100350000006002B1FBFB3FA83F503FA05F424FA55
:1003600005F65E4012BF1643B2FA82F502FA05F4B2
:10037000C5F120051EBF22FA05FC44EA0C04203515
:1003800056EA044C4FEA144418BF641C4FF00008AE
:100390004FF00009904271EB030C39D3002919BFCB
:1003A000B1FA81F701FA07F6B0FA80F700FA07F61A
:1003B000C7F120071EBF20FA07FC46EA0C062037CB
:1003C000B6FBF4FCA7EB0507103F07F01F0BCBF1C2
:1003D00020062CFA06F60CFA0BFB44BFB3460026A7
:1003E000202FA4BF5E464FF0000B5BEA060C08BF4F
:1003F0004FF0010B19EB0B0948EB0608ABFB027C35
:1004000006FB02CC0BFB03CCC01B71EB0C01C1E75C
:100410000B46024641464846BDE8F08B13B50843FB
:1004200018BF4FF0FF300146AFF30080BDE81C401D
:10043000704700000FB4044910B503AA029800F0F9
:10044000C9F910BC5DF814FB580F00207CB51D469F
:1004500016460C00009007D04142A14202D320442E
:10046000401E01E04FF0FF30064B7B442A466946B0
:100470000190304600F093F9002C02D0009A002140
:1004800011707CBD57030000032A40F2308010F049
:10049000030C00F0158011F8013BBCF1020F62441F
:1004A00098BF11F801CB00F8013B38BF11F8013BB0
:1004B000A2F1040298BF00F801CB38BF00F8013B5D
:1004C00011F0030300F07A83083AC0F0088051F875
:1004D000043B083A51F804CBA0E80810F5E7121DD8
:1004E0005CBF51F8043B40F8043BAFF30080D207F7
:1004F00024BF11F8013B11F801CB48BF11F8012BC3
:1005000024BF00F8013B00F801CB48BF00F8012BE5
:100510007047431A28BF9A427FF6B6AF1044114481
:10052000032A40F2268010F0030F1EBF11F8013D90
:10053000521E00F8013D10F0030F7FF4F6AF11F0EA
:10054000030300F08083083AC0F00B8051F8043DAB
:10055000083A51F804CD40F8043D40F804CDFFF7C7
:10056000F3BF121D5CBF51F8043D40F8043DAFF3EA
:100570000080D20724BF11F8013D11F801CD48BF1A
:1005800011F8012C24BF00F8013D00F801CD48BF4F
:1005900000F8012C70474FF000020429C0F01280CF
:1005A00010F0030C00F01B80CCF1040CBCF1020F26
:1005B00018BF00F8012BA8BF20F8022BA1EB0C01FB
:1005C00000F00DB85FEAC17C24BF00F8012B00F8F1
:1005D000012B48BF00F8012B70474FF0000200B517
:1005E000134694469646203922BFA0E80C50A0E856
:1005F0000C50B1F12001BFF4F7AF090728BFA0E804
:100600000C5048BF0CC05DF804EB890028BF40F8CF
:10061000042B08BF704748BF20F8022B11F0804F11
:1006200018BF00F8012B704770477047704770473C
:1006300070B5044685690068C10601D5302600E022
:100640002026C00707D070BDD4E90121304690476D
:10065000206A401C20626D1EF6D570BD70B5044640
:1006600085690078C00707D170BDD4E90121202039
:100670009047206A401C20626D1EF6D570BD096847
:100680004A0501D540B27047C905FCD500B2704794
:1006900009684A0501D5C0B27047C905FCD580B2CA
:1006A000704770B50C460546012A05D028788006AB
:1006B00000D5EA69002302E0012305E05B1C9342B8
:1006C00002D2E05C0028F9D1A869E618C01AA86136
:1006D000286A184428622846FFF7AAFF04E0D5E9F3
:1006E000012114F8010B9047B442F8D32846FFF7D4
:1006F000B5FF70BD2DE9F04106460024106875294C
:10070000314616A510D0FFF7BAFF002802DA4042A2
:1007100013A507E031688A0701D512A502E0490751
:1007200004D511A5012401E0FFF7B2FF00210A2240
:1007300006F1240709E0B0FBF2FCB0FBF2F302FB88
:100740001C00303078541846491C0028F3D1234649
:100750002A463046BDE8F04100F0E4BA000000004F
:100760002D0000002B00000020000000116802682E
:10077000006A530501D508700AE0D30501D5088049
:1007800006E0130603D5C217C1E9000200E00860C5
:100790000120704701694A1C02610878704700B562
:1007A0008FB0CDE901310021059105497944CDE9AA
:1007B00003101146684600F03DF90FB000BD00007F
:1007C000E5FFFFFFD1E900239A4202D2531C0B60E0
:1007D00010707047074B70B50D467B44FFF7DFFF85
:1007E0000446284600F0B0FE10B14FF0FF3070BD57
:1007F000204670BD9BAD00002DE9FF5F15468A467F
:100800000446DFF8AC80F8440027D8E900103E46E3
:10081000CDE9001010E03AF816106A4602A800F080
:1008200097FE411C07D02178890603D5E269391863
:1008300091420DD80744761C2078800602D5E069E5
:10084000B84205DDAE42E6DB3AF816000028E2D1F8
:10085000A069C01BA0612046FFF7EAFED8E900109E
:10086000CDE90010002017E03AF818106A4602A8F7
:1008700000F06EFEB0F1FF3F81460BD000250DF178
:10088000080B05E0D4E901211BF8050090476D1C19
:100890004D45F7D308F10100B0428046E4DB206A01
:1008A000384420622046FFF7D9FEBDE8FF9F0000D4
:1008B0002AB700002DE9F0418046D21D22F0070240
:1008C0000025D2E90002F52915A614D0011E72F107
:1008D000000106DA0023D0EB030063EB020211A64D
:1008E00008E0D8F800108B0701D50FA602E04907F1
:1008F00001D50EA601251146002408F1240704E0C5
:1009000000F0CBF930323A55641C50EA0102F7D1BD
:100910002B46324621464046BDE8F04100F002BA7F
:10092000000000002D0000002B000000200000004F
:1009300030B4002100F1240408E002F00705D208D9
:10094000303542EA4372DB086554491C52EA03051C
:10095000F3D10468002310A2250708D504F0200471
:100960000C4304D0C46901230CA2641EC46130BCD2
:1009700000F0D8B910B5044621461068FFF788FE8C
:1009800002462046BDE810400023D1E7D21D22F0E8
:100990000701D1E90023CBE7000000003000000090
:1009A000F0B40D460188090502D5214C7C4402E0D3
:1009B0001F4C7C440E34002100F1240608E002F0B4
:1009C0000F071209E75D42EA03721B097754491CBD
:1009D00052EA0307F3D102780023120704D5702DE1
:1009E00006D009B1022311342246F0BC00F09AB9B6
:1009F00001231034F8E770B504460D46214610680F
:100A0000FFF746FE024629462046BDE87040002317
:100A1000C6E7D21D22F00703D3E90023C0E703682D
:100A2000126843F0200303600823C3610023B7E783
:100A30008CB500002DE9F05F894604464FF0000AAE
:100A4000DFF874B1FB44C0F820A02046E168884775
:100A5000002874D0252806D0D4E901219047206AC7
:100A6000401C2062F1E700265F462046E168884787
:100A70002028054607DB312D05D2781910F8200C07
:100A800008B10643F1E7B00701D526F00406C4F823
:100A90001CA00027C4F818A02A2D09D028460BF066
:100AA0008DF938B304EB8708303DC8F8185019E0C9
:100AB00059F8041B204604EB87029161E1688847DE
:100AC000012F054618D1E069002820DA26F020061B
:100AD0001DE0D8F8180000EB800005EB400030382E
:100AE000C8F818002046E168884705460BF066F90B
:100AF0000028EED1012F0AD02E2D08D12046E16822
:100B000088477F1C0546022F46F02006C4DBA069FB
:100B1000002803DA404246F00106A061F00701D048
:100B200026F010066C2D0BD0682D09D04C2D39D035
:100B30006A2D35D0742D35D07A2D33D016E038E0BB
:100B4000E1682F4620468847B842054609D16C2FF8
:100B500026D04FF48060E16806432046884705466A
:100B600004E06C2F1AD04FF4807006430DB3A5F14A
:100B70004100192802D8203546F400664A46294625
:100B8000204626604E46FFF74FFB80B101280BD070
:100B9000F61D26F0070000F1080956E74020E4E7BB
:100BA0008020D8E70020D6E706F104094DE7284663
:100BB00052E7206ABDE8F09F1CB5000010B5203A4E
:100BC000C0F00B80B1E81850A0E81850B1E81850F8
:100BD000A0E81850203ABFF4F5AF5FEA027C24BFCA
:100BE000B1E81850A0E8185044BF18C918C0BDE8B3
:100BF00010405FEA827C24BF51F8043B40F8043B7C
:100C000008BF7047D20728BF31F8023B48BF11F830
:100C1000012B28BF20F8023B48BF00F8012B70478A
:100C2000431A28BF9A427FF6C9AF1044114410F00E
:100C3000030F1EBF11F8013D521E00F8013D10F0D8
:100C4000030F7FF4F6AF103AC0F00A8010B531E917
:100C5000185020E91850103ABFF4F9AFBDE8104021
:100C6000530724BF31E9081020E9081044BF51F8A8
:100C7000043D40F8043D12F0030F08BF7047D2074F
:100C800028BF31F8023D48BF11F8012C28BF20F8D9
:100C9000023D48BF00F8012C704730B5B0F10A02A0
:100CA00071F100034FEA900E4EEA817EB0EB0E0028
:100CB00061EB91014FEA101E4EEA017E10EB0E002F
:100CC00041EB11114FEA102E4EEA016E10EB0E00AF
:100CD00041EB11214FEA104E4EEA014E10EB0E008F
:100CE00041EB1141401841F100014FEAD00040EAC8
:100CF00041704FEAD1014FEA810444EA907410EB4D
:100D0000800544EB01046D1944EB0404521BA3411C
:100D10004FF0000348BF0A3200D530BD401C41F1FE
:100D2000000130BD2DE9F0470D4699469246044634
:100D300000F124080168880604D5E06921F010015B
:100D4000216000E00120A84201DD471B00E00027F0
:100D5000A1697A1902EB0900081AA0612078C0067F
:100D600002D42046FFF764FC002608E0D4E9012104
:100D70001AF806009047206A401C761C20624E45F7
:100D8000F4DB2078C0060AD52046FFF751FC06E0C8
:100D9000D4E9012130209047206A401C2062381E8F
:100DA000A7F10107F4DC07E0D4E9012118F80500F8
:100DB0009047206A401C2062281EA5F10105F3DC43
:100DC0002046FFF74BFC2078000602D50220BDE844
:100DD000F0870120FBE72DE9FF4F0C461E464FF040
:100DE000FF378BB0D2E90001DDF860800A908A46B7
:100DF000C1F30A5505B93D46002108464FF00000F1
:100E0000BAF1000F00F4400005DA00EB80004FF467
:100E1000400101EA50004FEA9059B9F1010F00DD9D
:100E2000B9460A9850EA4A000ED044F61050A5F28E
:100E3000FF3545432F14B8F1000F1ED07542291E0F
:100E40001EDDC9F100021CE0B8F1010F4FF00000F7
:100E500001D0302103E0F24305E02154401CB042B0
:100E6000FBDB30460022002121540B99C1F8088099
:100E7000C1E900200FB0BDE8F08FBD1B6D1CDEE79F
:100E80004A4600DA694206A800F0F8FB06AB93E890
:100E9000070003AB83E8070050460A990AF0ADFB50
:100EA0008DE80700A0F500501F3800900398002D32
:100EB0000ADD42F21F014A460844002303A90390B9
:100EC00068460AF017FE09E0A0F500504A461F38B0
:100ED000002303A9039068460AF021FE8DE807006D
:100EE0000004000C03D04FF0FF30410800E0104632
:100EF000B8F1000F03D00022009215461EE0751EC7
:100F000005D4FFF7CAFE303262556D1EF9D5B346DF
:100F10000122084302D000227F1C04E02078302800
:100F200001D100227F1E002A099784D01DE0112DD7
:100F300007DAFFF7B2FE303262556D1C50EA01024B
:100F4000F5D1084302D00098C8B10EE00021681E18
:100F500005E0235C625C63542254401E491C8142BC
:100F6000F7DBAB46A81B401E0990002004F80B00DD
:100F70000B98099AC0F80880C0E9002B7AE711267F
:100F80004FF0000857E72DE9F04F88460446D21D80
:100F900022F0070191B0D1E90001CDE90A010AF080
:100FA000F5FE02460B98C00F01D02D2007E0206807
:100FB000810701D52B2002E0202101EAC000032A8D
:100FC000099001D0072A05DB03464146204600F080
:100FD00015FB0BE12078800601D5E06900E00620D2
:100FE000B8F1650F814606D0B8F1660F18D0B8F198
:100FF000670F70D131E00020B9F1110F009001DBD3
:10100000112301E009F101030AAA01A90CA8FFF7C5
:10101000E2FEDDE90C70002609F10105834647E098
:1010200001204B4600904FF000470AAA01A90CA8E6
:10103000FFF7D1FEDDE90DB00C995D46002610B931
:1010400009F101000D18B9EB050003D4C0F1FF361A
:1010500009F10105A5EB09002BE0B9F1010F01DA57
:101060004FF001090020B9F1110F0090484601DD51
:10107000112300E003460AAA01A90CA8FFF7ABFE62
:10108000DDE90C704D4600268346207800070AD41F
:10109000AB4500DA5D4601A8012D04DD411911F8C8
:1010A000011C302907D04F4502DA17F1040F04DA8A
:1010B000012082460FE06D1EEEE7002F02DCED1BE3
:1010C0003E4403E0781CA84200DD7D1CB81B00F103
:1010D000010A4FF000472078000703D4AA4501DB3E
:1010E0004FF0FF3A0021B7F1004F0DF143088DF8A2
:1010F000431024D002202B23002F01DA7F422D231E
:101100000A21021EA0F1010000DC5FB197FBF1FC97
:1011100097FBF1F201FB1C7C17460CF1300C08F830
:1011200001CDEEE7A8F1010003702188090501D582
:10113000452100E06521A0F1010800F8011C099893
:101140000FA9A1EB0807FF1D00B10120411901EB18
:10115000EA70A1693844081A401EA0612078C006D0
:1011600002D42046FFF764FA099828B1D4E9012196
:101170009047206A401C20622078C00622D5204675
:10118000FFF756FA1EE0002E04DBB34502DD01A88E
:10119000805D00E03020D4E901219047206A401CA6
:1011A0002062761CAAF101005FEA000A0AD100F071
:1011B00021FAC0680168405CD4E901219047206AA7
:1011C000401C2062281EA5F10105DCDC07E0D4E903
:1011D000012118F8010B9047206A401C2062381E3C
:1011E000A7F10107F3DC2046FFF738FA032011B01E
:1011F00041E600002DE9F04F04460D46D21D22F0D5
:10120000070089B0D0E90097484639460AF0BEFD8C
:101210000246F80F01D02D2307E02068810701D591
:101220002B2302E0202101EAC0038DF820300BB10E
:10123000012000E00020032A824601D0072A04DBB7
:101240002946204600F0DAF93FE12078800601D4F3
:101250000D2500E0E569C7F30A560D2D49DA002196
:101260004FEA175B08464FF00000002F00F44000E3
:1012700007DA00EB80004FF4400100EBD07001EA88
:1012800060008115012901DD4FF0FF3100224FEA96
:10129000850CBCF1180F06D31346ACF118004FF0C3
:1012A0008052C24003E04FF4801323FA0CF30CF198
:1012B0000C0CBCF1200F04D3ACF1200C09FA0CF09B
:1012C00001E007FA0CF000294FF0004801DD18B9E1
:1012D0000FE00ED140450CD319EB02095F4121B953
:1012E000404502D19F4329EA0209BBEB175F00D0BA
:1012F000761C2088000502D57B48784402E07A48B5
:101300007844193808AA302302F80A30037C0AF11D
:101310000101002E0AF1020A53546A4602DC4FF022
:10132000300101E04FF031014FF001088DF800105D
:1013300002D0A6F2FF3603E059EA470100D06B4E17
:10134000002D02DC2178090704D54FF002082E2178
:101350008DF80110C44600210BE0C7F303433F01A1
:10136000C35C491C6D1E02F80830052908F101080C
:1013700001DA002DF1DC00210CE000EB1973491CAF
:101380001B786D1E082902F808304FEA091908F188
:10139000010801DA002DF0DC21688B0602D516E089
:1013A000A8F10108E04505DD02EB080313F8013C54
:1013B000302BF5D0B8F1000F09DD02EB080313F86C
:1013C000013C2E2B03D1090701D4A8F10108002DFF
:1013D00005DD3E2102F808106D1E08F10108407C71
:1013E000002E02F8080008F1010804DA2D207642E8
:1013F00002F8080002E02B2002F808000A214FF44E
:101400007A70864208F101080BDB96FBF0F330336B
:1014100002F8083096FBF0F308F1010800FB1366B0
:1014200001E0642E0CDB642096FBF0F3303302F80D
:10143000083096FBF0F308F1010800FB136601E0A9
:101440000A2E06DB96FBF1F0303002F8080008F1B6
:10145000010896FBF1F001FB1060303002F8080043
:10146000A16908F1010808EB050202EB0A00081A5D
:10147000A0612078C00602D42046FFF7D9F8216A7F
:1014800008AE01EB0A00206204E0D4E9012116F85D
:10149000010B9047BAF1010AF7D22078C00602D5B5
:1014A0002046FFF7C5F86E4609E016F8010B3E2806
:1014B0000FD0D4E901219047206A401C2062B8F186
:1014C0000108F2D22046FFF7C9F809B00320BDE8B1
:1014D000F08F206A2844206203E0D4E90121302003
:1014E00090476D1EEBD3F8E78AAC000002FCFFFFCB
:1014F00010B5436913B1AFF3008001E0FFF7D1F8F5
:10150000012010BD127800F124010A7000224A70F7
:101510000122EDE711684FF0FF32E9E710B54369AA
:1015200013B1AFF3008001E0FFF766F9012010BDB1
:10153000128800F1240182840022C2840122EDE796
:1015400011684FF0FF32E9E7007B00F08000704740
:101550002DE9F04116460C46054600F043F80368B5
:1015600093F80101012807D0FF2C12D8185D80B133
:1015700001202C70BDE8F081D3F8070132462146E6
:1015800003F20713C7182846BC46BDE8F041002304
:1015900060474FF0FF30EDE7754600F0EBF8AE46E0
:1015A00005006946534620F00700854618B020B56F
:1015B000FEF7B4FEBDE820404FF000064FF00007F4
:1015C0004FF000084FF0000BAC46ACE8C009ACE8A7
:1015D000C009ACE8C009ACE8C00921F007018D469C
:1015E0007047000010B500F005F8001D10BD00BFE9
:1015F00009A8000000487047300000202DE9F041A4
:101600001F46044603260168072A01F4006004DB34
:1016100008B116A505E016A503E008B115A500E080
:1016200015A521F010002060A069C01EA0610FB1B7
:10163000401EA0612046FEF7FBFF4FB1D4E9012117
:1016400038469047206A401C2062C01C206206E099
:10165000206AFAE7D4E9012115F8010B9047761EBC
:10166000F8D22046FEF7FAFFBDE8F0814E414E0069
:101670006E616E00494E4600696E66002DE9F047C6
:10168000814616468AB0354878440DC88DE80D006D
:1016900032487844801C03AC0DC884E80D0041F644
:1016A0009B300844372190FBF1F290FBF1F5A5F156
:1016B000800501FB12041B3C02D56442012000E0BE
:1016C0000020DFF898A080460027FA44AAF1BE0A5D
:1016D0000EE0E0070AD03246684607EB47010123D7
:1016E0000AEB81010AF01BFA8DE8070064107F1CE9
:1016F000002CEED1194F7F44AE3F19E0E80715D01A
:1017000007EB04100DF1180A90E80E008AE80E00AD
:10171000C068F04201D1981908903246012306A909
:1017200003A80AF0FCF903AB83E807006D10641C02
:10173000002DE3D14FF0010332466946B8F1000FA6
:1017400003A802D00AF0D6F901E00AF0E8F9C9E9E5
:101750000001C9F808200AB0BDE8F0878CA9000094
:1017600010B50446AFF300802046BDE81040FEF7F8
:10177000C0BD0000004870471000002000000000BD
:1017800030B44FF0013C50F8042B51F8043BCCFA34
:1017900052F4D51A20D1FCB950F8042B51F8043B6F
:1017A000CCFA52F4D51A17D1B4B950F8042B51F829
:1017B000043BCCFA52F4D51A0ED16CB950F8042B74
:1017C00051F8043BCCFA52F4D51A05D1002CDAD0EA
:1017D00030BC4FF00000704729BAB1FA81F111F026
:1017E0001801D1F120008440F2D1CA40CB4012F060
:1017F000FF0213F0FF0330BCD01A7047FFE7FEE78B
:1018000080B540F6AC70C2F2000000F07DF980BDFA
:1018100080B541F20C00C2F2000000F075F980BD05
:1018200082B001900198007810384AF6AB21CAF6D0
:10183000AA21A0FB01100009009000994CF2480079
:10184000C0F60000405C0199C8650098042807D3E1
:10185000FFE701990868042262F30900886506E041
:101860000199086840F2FF3290438865FFE70198CC
:10187000806D02B07047000086B0059000208DF8A2
:1018800013000598806A03900598806910BBFFE7F4
:101890000398029003281BD80299DFE801F0020D9B
:1018A0000218059890F82F00C00720B1FFE701202B
:1018B0008DF81300FFE70CE00598C06AB0F1C07F17
:1018C00004D1FFE701208DF81300FFE701E000E0FD
:1018D000FFE745E005988069B0F5005F25D1FFE797
:1018E0000398019003281ED80199DFE801F0020651
:1018F000021101208DF8130016E0059890F82F00D2
:10190000C00720B1FFE701208DF81300FFE70BE0CF
:101910000598C06AB0F1C07F04D1FFE701208DF8BF
:101920001300FFE700E0FFE719E0039800900328A9
:1019300004D3FFE70098032804D00EE001208DF8BF
:1019400013000BE0059890F82F00C00720B1FFE7C7
:1019500001208DF81300FFE700E0FFE7FFE7FFE756
:101960009DF8130006B0704784B003900291019275
:10197000009303980168086820F4802008600098AC
:1019800003990968486003988068402809D1FFE7F7
:101990000198039909688860029803990968C860EA
:1019A00008E002980399096888600198039909681A
:1019B000C860FFE704B070477047000080B54FF47F
:1019C000807000F0A7FB4FF4007000F0A3FB80BD17
:1019D00072B6FFE7FEE7000080B584B0029002987F
:1019E000806D019000F0BEFD0090029890F83500E7
:1019F00002280DD0FFE7029980204865FFE7029991
:101A0000002081F83400FFE701208DF80F0055E039
:101A100002980168086820F01600086002980168C2
:101A2000486920F0800048610298006C20B9FFE707
:101A30000298806C38B1FFE702980168086820F0CE
:101A400008000860FFE702980168086820F00100BC
:101A50000860FFE7029800680068C007C8B1FFE7A8
:101A600000F080FD0099401A062811D3FFE7029983
:101A7000202048650299032081F83500FFE702998C
:101A8000002081F83400FFE703208DF80F0015E0F7
:101A9000E0E70298C16D3F20884001998860029973
:101AA000012081F83500FFE70299002081F8340019
:101AB000FFE7FFE700208DF80F00FFE79DF80F001C
:101AC00004B080BD82B00090009890F835000228E4
:101AD00007D0FFE700998020486501208DF80700B6
:101AE0000EE00099052081F835000098016808682B
:101AF00020F001000860FFE700208DF80700FFE7F5
:101B00009DF8070002B0704780B586B005900020B0
:101B1000039040F20000C2F20000006848F2B511E4
:101B2000C1F64E31A0FB0110800A02900598806D2D
:101B3000019001980068049004980599C96DC84007
:101B4000000700281AD5FFE70598006800684007DD
:101B5000002812D5FFE705980168086820F0040006
:101B600008600598C16D0820884001998860059932
:101B7000486D40F001004865FFE7FFE704980599CC
:101B8000C96DC840C007A0B1FFE70598006840696B
:101B9000000600280CD5FFE70598C16D012088409C
:101BA000019988600599486D40F002004865FFE79B
:101BB000FFE704980599C96DC8404007002814D56F
:101BC000FFE7059800680068800700280CD5FFE74C
:101BD0000598C16D04208840019988600599486D79
:101BE00040F004004865FFE7FFE704980599C96DD8
:101BF000C840C006002847D5FFE705980068006880
:101C0000000700283FD5FFE70598C16D10208840E8
:101C100001998860059800680068400300281AD57B
:101C2000FFE70598006800680003002809D4FFE773
:101C30000598006C20B1FFE70598016C8847FFE725
:101C400008E00598806C20B1FFE70598816C884713
:101C5000FFE7FFE716E0059800680068C005002868
:101C600007D4FFE705980168086820F008000860BD
:101C7000FFE70598006C20B1FFE70598016C8847E5
:101C8000FFE7FFE7FFE7FFE704980599C96DC84044
:101C90008006002840F18D80FFE705980068006805
:101CA000C006002840F18480FFE70598C16D202020
:101CB000884001998860059890F83500052834D14E
:101CC000FFE705980168086820F01600086005988D
:101CD0000168486920F0800048610598006C20B9CF
:101CE000FFE70598806C38B1FFE705980168086840
:101CF00020F008000860FFE70598C16D3F2088408C
:101D0000019988600599012081F83500FFE7059960
:101D1000002081F83400FFE70598006D20B1FFE74F
:101D20000598016D8847FFE77BE00598006800682B
:101D3000400300281AD5FFE70598006800680003F3
:101D4000002809D4FFE70598406C20B1FFE705980B
:101D5000416C8847FFE708E00598C06B20B1FFE7BA
:101D60000598C16B8847FFE7FFE720E0059800680A
:101D70000068C005002811D4FFE7059801680868CD
:101D800020F0100008600599012081F83500FFE778
:101D90000599002081F83400FFE7FFE70598C06B44
:101DA00020B1FFE70598C16B8847FFE7FFE7FFE732
:101DB000FFE70598406DA0B3FFE70598406DC007A9
:101DC00030B3FFE70599052081F8350005980168D3
:101DD000086820F001000860FFE7039801300390D5
:101DE0000299884201D9FFE707E0FFE705980068FC
:101DF0000068C0070028F0D1FFE70599012081F8AD
:101E00003500FFE70599002081F83400FFE7FFE780
:101E10000598C06C20B1FFE70598C16C8847FFE7C3
:101E2000FFE706B080BD000080B586B004900020BA
:101E3000039000F097FB0290049820B9FFE701207F
:101E40008DF81700A3E00498406A08B1FFE7FFE7A8
:101E50000499022081F83500FFE70499002081F8F9
:101E60003400FFE704980168086820F0010008606A
:101E7000FFE7049800680068C00790B1FFE700F032
:101E800071FB0299401A06280AD3FFE70499202023
:101E900048650499032081F835008DF8170076E035
:101EA000E7E70498006800680390039848F23F0150
:101EB000CFF2100108400390049900914868D1F8CE
:101EC00008C0CB680A6940EA0C00184310434A690D
:101ED00010438A691043CA691043096A0143039891
:101EE000084303900498406A042808D1FFE7049946
:101EF000C86A096B0143039808430390FFE70398FE
:101F00000499096808600498006840690390039880
:101F100020F0070003900498416A03980843039057
:101F20000498406A04281AD1FFE70498816A03984C
:101F3000084303900498C06A80B1FFE70498FFF754
:101F40009BFC50B1FFE704994020486504990120AB
:101F500081F835008DF8170019E0FFE7FFE70398D7
:101F60000499096848610498FFF75AFC01900498A5
:101F7000C16D3F2088400199886004990020486520
:101F8000049A012182F835108DF81700FFE79DF8BB
:101F9000170006B080BD000080B588B0069005919E
:101FA0000492039300208DF80B000698806D019039
:101FB000FFE7069890F83400012804D1FFE70220DB
:101FC0008DF81F0045E00699012081F83400FFE7F5
:101FD000FFE7069890F8350001282BD1FFE7069916
:101FE000022081F835000699002048650698059979
:101FF000049A039BFFF7B8FC0698C16D3F20884008
:102000000199886006980168086840F01600086029
:102010000698006C38B1FFE706980168086840F040
:1020200008000860FFE706980168086840F00100B2
:10203000086009E0FFE70699002081F83400FFE717
:1020400002208DF80B00FFE79DF80B008DF81F00B4
:10205000FFE79DF81F0008B080BD000080B584B088
:10206000039000F07FFA02900398019001980130EC
:1020700048B1FFE740F20400C2F200000178019885
:1020800008440190FFE7FFE700F06CFA0299401A5C
:102090000199884201D2FFE7F6E704B080BD000055
:1020A00080B584B0ADF80E00BDF80E00B0F5007F2D
:1020B00007D0FFE7BDF80E00B0F5807F01D0FFE745
:1020C00026E006F05FF88DF80D0040F2CE20C2F257
:1020D0000000029000789DF80D1005F0DFFE0299D7
:1020E0008DF80C009DF80D0008709DF90C0078B17A
:1020F000FFE740F2D020C2F200000190B0F90000EA
:102100009DF90C10084405F0A1FF01990880FFE734
:1021100004B080BD80B582B0ADF8060043F614402F
:10212000C4F201000068BDF8061008420CD0FFE7B9
:10213000BDF8060043F61441C4F201010860BDF881
:102140000600FFF7ADFFFFE702B080BD8EB00D9037
:102150000C9100200A90099008900B90FFE70B98D3
:102160000F2800F2CC81FFE70B99012088400A90EC
:102170000C9800680A990840099009980A998842C1
:1021800040F0B881FFE70C98406800F00300012898
:1021900007D0FFE70C98406800F0030002282FD119
:1021A000FFE70D98806808900B984100032000FA23
:1021B00001F10898884308900C98C0680B99490071
:1021C00000FA01F108980843089008980D99886072
:1021D0000D98406808900B99012000FA01F10898C9
:1021E000884308900C984068C0F300100B9900FADF
:1021F00001F108980843089008980D994860FFE796
:102200000C98406800F00300032818D0FFE70D98F1
:10221000C06808900B984100032000FA01F108986B
:10222000884308900C9880680B99490000FA01F1E6
:1022300008980843089008980D99C860FFE70C9823
:10224000406800F00300022826D1FFE70D980B99A3
:102250006FF0030202EA51010844006A08900B98EB
:1022600000F0070081000F2000FA01F10898884370
:1022700008900C9800690B9901F00701890000FA99
:1022800001F108980843089008980D990B9B02EA01
:10229000530211440862FFE70D98006808900B98FC
:1022A0004100032000FA01F10898884308900C9837
:1022B000406800F003000B99490000FA01F108980A
:1022C0000843089008980D9908600C988079800759
:1022D000002800F00E81FFE7FFE70020079043F69B
:1022E0004400C4F20200016841F4804101600068CA
:1022F00000F4804007900798FFE70B9820F0030058
:1023000043F60801C4F20101405808900B9800F010
:10231000030081000F2000FA01F10898884308901B
:102320000D980021C4F20201884203D1FFE700208A
:1023300006905EE00D9840F20041C4F2020188422E
:1023400003D1FFE70120059050E00D9840F6000111
:10235000C4F20201884203D1FFE70220049042E068
:102360000D9840F60041C4F20201884203D1FFE714
:102370000320039034E00D9841F20001C4F2020101
:10238000884203D1FFE70420029026E00D9841F235
:102390000041C4F20201884203D1FFE70520019009
:1023A00018E00D9841F60001C4F20201884203D101
:1023B000FFE7062000900AE00D9941F60042C4F2C2
:1023C00002020820914208BF07200090FFE7009812
:1023D0000190FFE701980290FFE702980390FFE762
:1023E00003980490FFE704980590FFE7059806908E
:1023F000FFE70698C0B20B9901F00301890000FACB
:1024000001F108980843089008980B9921F00301FE
:1024100043F60802C4F20102885043F60840C4F2B1
:1024200001000068089009990898884308900C9862
:102430008079C006002805D5FFE709990898084368
:102440000890FFE7089843F60841C4F201010860CC
:1024500043F60C40C4F201000068089009990898FE
:10246000884308900C9880798006002805D5FFE7FE
:102470000999089808430890FFE7089843F60C412B
:10248000C4F20101086043F60440C4F20100006890
:10249000089009990898884308900C9880798007DB
:1024A000002805D5FFE70999089808430890FFE739
:1024B000089843F60441C4F20101086043F6004065
:1024C000C4F20100006808900999089888430890B0
:1024D0000C988079C00728B1FFE70999089808434C
:1024E0000890FFE7089843F60041C4F20101086034
:1024F000FFE7FFE7FFE70B9801300B902FE60EB0E8
:102500007047000082B00190ADF802100198006998
:10251000BDF80210084204D0FFE701208DF8010049
:1025200003E000208DF80100FFE79DF8010002B0F4
:102530007047000082B00190ADF802108DF80120C4
:102540009DF8010028B1FFE7BDF8020001998861FC
:1025500005E0BDF80200000401998861FFE702B0C0
:102560007047000041F2AC20C2F2000000687047E2
:1025700040F20400C2F20000027841F2AC21C2F243
:1025800000010868104408607047000080B543F6F9
:102590000041C4F20201086840F400700860086855
:1025A00040F480600860086840F480700860032090
:1025B00000F08AF80F2000F005F800F03BF800204A
:1025C00080BD000080B582B0009040F20000C2F2F1
:1025D0000000006840F20401C2F200010A784FF4E2
:1025E0007A71B1FBF2F1B0FBF1F000F0A5FD20B182
:1025F000FFE701208DF8070018E000980F280DD89C
:10260000FFE700994FF0FF30002200F043F80098F8
:1026100040F20801C2F20001086003E001208DF8D9
:10262000070003E000208DF80700FFE79DF8070092
:1026300002B080BD82B0FFE70020019043F6440065
:10264000C4F20200016841F480410160006800F4B6
:10265000804001900198FFE7FFE70020009043F6DB
:102660004000C4F20200016841F08051016000683E
:1026700000F0805000900098FFE702B07047000023
:1026800080B582B08DF807009DF9070008F000FFC3
:1026900002B080BD80B586B08DF81700049103921A
:1026A0000020029008F00CFF02909DF917000190A5
:1026B00002980499039A07F005FF0146019808F073
:1026C00007FF06B080BD000080B582B00190019880
:1026D00008F020FF02B080BD80B584B00290019167
:1026E000029820B9FFE701208DF80F0021E1019841
:1026F00043F60041C4F20201096801F00701884273
:1027000012D9FFE7019943F60040C4F202000170BC
:10271000006800F007000199884204D0FFE701201B
:102720008DF80F0005E1FFE7029800788007002888
:102730002AD5FFE7029800784007002809D5FFE76F
:1027400043F60801C4F20201086840F4E050086052
:10275000FFE7029800780007002809D5FFE743F655
:102760000801C4F20201086840F460400860FFE715
:1027700043F60801C4F20201086820F0F000029A52
:10278000926810430860FFE702980078C0070028AD
:102790006ED0FFE702984068012811D1FFE743F6A9
:1027A0000000C4F20200006800F400310020B0EB29
:1027B000514F04D1FFE701208DF80F00B9E02CE064
:1027C00002984068022805D0FFE702984068032875
:1027D00011D1FFE743F60000C4F20200006800F0E8
:1027E00000710020B0EB516F04D1FFE701208DF89C
:1027F0000F009EE010E043F60000C4F20200006803
:1028000000F002010020B0EB510F04D1FFE70120DE
:102810008DF80F008DE0FFE7FFE743F60801C4F2F3
:102820000201086820F00300029A52681043086011
:10283000FFF798FE0090FFE743F60800C4F202009D
:10284000006800F00C0002994968B0EB810F0ED0CF
:10285000FFE7FFF787FE0099401A41F2893188426D
:1028600004D3FFE703208DF80F0062E0E4E7FFE701
:10287000019843F60041C4F20201096801F0070122
:10288000884212D2FFE7019943F60040C4F20200E9
:102890000170006800F007000199884204D0FFE74A
:1028A00001208DF80F0044E0FFE702980078400710
:1028B00000280CD5FFE743F60801C4F202010868BE
:1028C00020F4E050029AD26810430860FFE70298B3
:1028D0000078000700280DD5FFE743F60801C4F291
:1028E0000201086820F46040029A126940EAC200BE
:1028F0000860FFE700F04CF843F60801C4F202015B
:102900000968C9B20A094CF23001C0F60001895CBD
:10291000C84040F20001C2F20001086040F2080025
:10292000C2F200000068FFF74DFE00208DF80F0096
:10293000FFE79DF80F0004B080BD000040F20000EA
:10294000C2F200000068704780B5FFF7F7FF43F65A
:102950000801C4F202010968C1F382224CF240016D
:10296000C0F60001895CC84080BD000080B5FFF75B
:10297000E5FF43F60801C4F20201096889B24A0B77
:102980004CF24001C0F60001895CC84080BD0000E7
:1029900080B586B00020059004900390029043F625
:1029A0000800C4F20200006800F00C00014601912A
:1029B00040B1FFE7019804280AD0FFE701980828F2
:1029C0000CD04FE042F20040C0F2F40002904FE021
:1029D00041F20020C0F27A00029049E043F6040080
:1029E000C4F20200016801F03F0105910068400255
:1029F000002813D5FFE743F60400C4F20200006884
:102A0000C0F3881041F20021C0F27A01A0FB01015D
:102A1000059A0023FDF795FC049012E043F60400AC
:102A2000C4F202000068C0F3881042F20041C0F214
:102A3000F401A0FB0101059A0023FDF782FC04903C
:102A4000FFE743F60400C4F20200006800F44031DE
:102A5000022000EBD130039004980399B0FBF1F011
:102A6000029005E042F20040C0F2F4000290FFE75D
:102A7000029806B080BD000080B586B0049004982E
:102A800020B9FFE701208DF8170050E30498007883
:102A9000C007002800F0A580FFE743F60800C4F255
:102AA0000200006800F00C00042813D0FFE743F692
:102AB0000800C4F20200006800F00C0008281ED1D3
:102AC000FFE743F60400C4F2020000684002002859
:102AD00015D5FFE743F60000C4F20200006800F4D9
:102AE00000310020B0EB514F08D0FFE70498406858
:102AF00020B9FFE701208DF8170018E370E0FFE729
:102B000004984068B0F5803F09D1FFE743F6000123
:102B1000C4F20201086840F48030086020E00498A4
:102B20004068B0F5A02F0DD1FFE743F60001C4F2D5
:102B30000201086840F480200860086840F4803092
:102B400008600CE043F60001C4F20201086820F4BA
:102B500080300860086820F480200860FFE7FFE705
:102B6000FFE704984068E8B1FFE7FFF7FBFC03903C
:102B7000FFE743F60000C4F20200006800F40031F1
:102B80000020B0EB514F0CD1FFE7FFF7EBFC0399AE
:102B9000401A652804D3FFE703208DF81700C6E22A
:102BA000E7E71CE0FFF7DEFC0390FFE743F60000D9
:102BB000C4F20200006800F400310020B0EB514F75
:102BC0000CD0FFE7FFF7CEFC0399401A652804D329
:102BD000FFE703208DF81700A9E2E7E7FFE7FFE72B
:102BE000FFE7049800788007002840F19680FFE70F
:102BF00043F60800C4F20200006810F00C0F13D076
:102C0000FFE743F60800C4F20200006800F00C0081
:102C100008282CD1FFE743F60400C4F20200006844
:102C20004002002823D4FFE743F60000C4F202006C
:102C3000006800F002010020B0EB510F09D0FFE75F
:102C40000498C068012804D0FFE701208DF8170020
:102C50006DE243F60001C4F20201086820F0F800BA
:102C6000049A126940EAC2000860FFE754E0049841
:102C7000C06870B3FFE70021C4F24721012008605B
:102C8000FFF770FC0390FFE743F60000C4F2020078
:102C9000006800F002010020B0EB510F0CD1FFE7FB
:102CA000FFF760FC0399401A032804D3FFE70320D1
:102CB0008DF817003BE2E7E743F60001C4F202019A
:102CC000086820F0F800049A126940EAC20008601F
:102CD00021E00021C4F2472100200860FFF742FCF8
:102CE0000390FFE743F60000C4F20200006800F022
:102CF00002010020B0EB510F0CD0FFE7FFF732FCD0
:102D00000399401A032804D3FFE703208DF8170026
:102D10000DE2E7E7FFE7FFE7FFE704980078000729
:102D200000284BD5FFE70498406918B3FFE740F649
:102D30008061C4F2472101200860FFF713FC039073
:102D4000FFE743F67400C4F20200006800F00201DD
:102D50000020B0EB510F0CD1FFE7FFF703FC039904
:102D6000401A032804D3FFE703208DF81700DEE1A3
:102D7000E7E722E040F68061C4F2472100200860C6
:102D8000FFF7F0FB0390FFE743F67400C4F2020084
:102D9000006800F002010020B0EB510F0CD0FFE7FB
:102DA000FFF7E0FB0399401A032804D3FFE7032051
:102DB0008DF81700BBE1E7E7FFE7FFE7049800782D
:102DC0004007002840F1CE80FFE700208DF8070083
:102DD00043F64000C4F202000068C000002815D489
:102DE000FFE7FFE70020009043F64000C4F2020036
:102DF000016841F080510160006800F0805000904F
:102E00000098FFE701208DF80700FFE747F2000078
:102E1000C4F200000068C005002822D4FFE747F292
:102E20000001C4F20001086840F480700860FFF7F8
:102E300099FB0390FFE747F20000C4F2000000682E
:102E4000C00500280CD4FFE7FFF78CFB0399401A5C
:102E5000032804D3FFE703208DF8170067E1EAE7B2
:102E6000FFE7FFE704988068012809D1FFE743F6F0
:102E70007001C4F20201086840F0010008601FE020
:102E80000498806805280DD1FFE743F67001C4F26D
:102E90000201086840F004000860086840F0010082
:102EA00008600CE043F67001C4F20201086820F0EB
:102EB00001000860086820F004000860FFE7FFE7F1
:102EC000FFE704988068F8B1FFE7FFF74BFB03903A
:102ED000FFE743F67000C4F20200006800F0020150
:102EE0000020B0EB510F0ED1FFE7FFF73BFB03993A
:102EF000401A41F28931884204D3FFE703208DF85C
:102F0000170014E1E5E71EE0FFF72CFB0390FFE755
:102F100043F67000C4F20200006800F002010020D5
:102F2000B0EB510F0ED0FFE7FFF71CFB0399401ADF
:102F300041F28931884204D3FFE703208DF817005E
:102F4000F5E0E5E7FFE79DF80700012809D1FFE775
:102F500043F64001C4F20201086820F08050086086
:102F6000FFE7FFE704988069002800F0DC80FFE7B6
:102F700043F60800C4F20200006800F00C000828C4
:102F800000F08580FFE70498806902285CD1FFE7A4
:102F90006021C4F2472100200860FFF7E3FA0390A4
:102FA000FFE743F60000C4F20200006800F0007181
:102FB0000020B0EB516F0CD0FFE7FFF7D3FA039975
:102FC000401A032804D3FFE703208DF81700AEE072
:102FD000E7E70499C869D1F820C04B6A8A6A40EAD9
:102FE0000C0040EA8310D2034FF6FF739A43A2F518
:102FF00080321043C96A40EA016043F60401C4F21A
:10300000020108606021C4F2472101200860FFF737
:10301000A9FA0390FFE743F60000C4F2020000683B
:1030200000F000710020B0EB516F0CD1FFE7FFF70B
:1030300099FA0399401A032804D3FFE703208DF877
:10304000170074E0E7E721E06021C4F24721002087
:103050000860FFF787FA0390FFE743F60000C4F229
:103060000200006800F000710020B0EB516F0CD03E
:10307000FFE7FFF777FA0399401A032804D3FFE725
:1030800003208DF8170052E0E7E7FFE74AE00498D5
:103090008069012804D1FFE701208DF8170046E080
:1030A00043F60400C4F202000068029004988069AC
:1030B000012831D0FFE7029800F480000499C96923
:1030C000884229D1FFE7029800F03F000499096A7D
:1030D000884221D1FFE7029847F6C0710840049961
:1030E000496AB0EB811F17D1FFE7029800F4403026
:1030F0000499896AC9034FF6FF729143A1F58031A3
:10310000884209D1FFE7029800F070600499C96A0B
:10311000B0EB016F04D0FFE701208DF8170006E047
:10312000FFE7FFE7FFE700208DF81700FFE79DF8B6
:10313000170006B080BD000080B582B001900198F4
:1031400007F0FAF902B080BD81B0009001B070477D
:1031500081B0009001B0704784B0029001910020CE
:103160000090FFE7029890F83C00012804D1FFE7A7
:1031700002208DF80F0044E00299012081F83C0004
:10318000FFE7FFE7009820F0FF000199C9680843B6
:103190000090009820F440700199896808430090DD
:1031A000009820F4806001994968084300900098D5
:1031B00020F400600199096808430090009820F409
:1031C00080500199096908430090009820F400504C
:1031D0000199496908430090009820F480400199C2
:1031E000C969084300900098029909684864FFE79C
:1031F0000299002081F83C00FFE700208DF80F00C5
:10320000FFE79DF80F0004B07047000085B0039001
:103210000291FFE7039890F83C00012804D1FFE7F2
:1032200002208DF813007EE00399012081F83C0014
:10323000FFE7FFE70399022081F83D00039800684B
:10324000406801900398006880680090019820F021
:10325000700001900298016801980843019001985C
:10326000039909684860039800680021C4F20101CD
:1032700088423CD0FFE703980068B0F1804F36D019
:10328000FFE70398006840F20041C4F20001884261
:103290002DD0FFE70398006840F60001C4F200015A
:1032A000884224D0FFE70398006840F60041C4F24A
:1032B000000188421BD0FFE70398006840F20041FC
:1032C000C4F20101884212D0FFE70398006844F27B
:1032D0000001C4F20101884209D0FFE703980068A9
:1032E00041F60001C4F2000188420ED1FFE70098C8
:1032F00020F08000009002984168009808430090F8
:103300000098039909688860FFE70399012081F814
:103310003D00FFE70399002081F83C00FFE7002013
:103320008DF81300FFE79DF8130005B0704700000B
:1033300080B582B00090009820B9FFE701208DF899
:1033400007003FE0009890F83D0040B9FFE7009982
:10335000002081F83C00009800F038F8FFE7009961
:10336000022081F83D00009951F8040B07F082F922
:103370000099012081F84600FFE70099012081F8BB
:103380003E00009981F83F00009981F840000099C3
:1033900081F84100FFE7FFE70099012081F8420032
:1033A000009981F84300009981F84400009981F860
:1033B0004500FFE70099012081F83D0000208DF8CD
:1033C0000700FFE79DF8070002B080BD80B586B01A
:1033D00005900598006840F60041C4F2000188425B
:1033E00012D1FFE7FFE70020049043F64000C4F24B
:1033F0000200016841F008010160006800F0080067
:1034000004900498FFE740E00598006841F200014D
:10341000C4F2000188421BD1FFE7FFE700200390C0
:1034200043F64000C4F20200016841F0100101605F
:10343000006800F0100003900398FFE73620019029
:1034400001210022FFF726F90198FFF719F91BE087
:103450000598006840F20041C4F20101884212D18F
:10346000FFE7FFE70020029043F64400C4F20200A9
:10347000016841F002010160006800F00200029062
:103480000298FFE7FFE7FFE7FFE706B080BD000017
:1034900083B00190019890F83D00012804D0FFE727
:1034A00001208DF80B006AE00199022081F83D00AF
:1034B00001980168C86840F00100C8600198006880
:1034C0000021C4F2010188423CD0FFE70198006866
:1034D000B0F1804F36D0FFE70198006840F200411C
:1034E000C4F2000188422DD0FFE70198006840F641
:1034F0000001C4F20001884224D0FFE7019800686F
:1035000040F60041C4F2000188421BD0FFE7019859
:10351000006840F20041C4F20101884212D0FFE786
:103520000198006844F20001C4F20101884209D008
:10353000FFE70198006841F60001C4F200018842EB
:1035400012D1FFE701980068806800F00700009042
:103550000098062807D0FFE701980168086840F046
:1035600001000860FFE706E001980168086840F084
:1035700001000860FFE700208DF80B00FFE79DF8D1
:103580000B0003B07047000080B586B00490039133
:1035900000208DF80B00FFE7049890F83C0001280C
:1035A00004D1FFE702208DF81700ABE00499012059
:1035B00081F83C00FFE7FFE70499022081F83D0015
:1035C0000498006880680190019820F077000190CD
:1035D000019820F47F40019001980499096888605F
:1035E000039800680090002872D0FFE70098102828
:1035F0006ED0FFE7009820286AD0FFE700983028B7
:1036000066D0FFE70098402855D0FFE70098502883
:1036100037D0FFE70098602840D0FFE70098702877
:103620000BD0FFE70098B0F5805F05D0FFE700986A
:10363000B0F5005F16D052E055E004980068039B97
:103640005A689968DB6807F003F904980068806895
:103650000190019840F07700019001980499096861
:10366000886040E004980068039B5A689968DB68AA
:1036700007F0EEF804980168886840F4804088609C
:1036800031E004980068039A5168D26807F0CCFAD8
:1036900004980068502107F0F5F824E004980068C9
:1036A000039A5168D26807F0E7FA0498006860212D
:1036B00007F0E8F817E004980068039A5168D268A8
:1036C00007F0B2FA04980068402107F0DBF80AE03E
:1036D000049800680399096807F0D4F803E0012012
:1036E0008DF80B00FFE70499012081F83D00FFE70A
:1036F0000499002081F83C00FFE79DF80B008DF84D
:103700001700FFE79DF8170006B080BD80B586B0B2
:1037100004900391049820B9FFE701208DF8170069
:1037200088E0049890F83D0040B9FFE70499002034
:1037300081F83C00049800F081F8FFE7049902202A
:1037400081F83D0004980168886844F207029043BC
:103750008860049951F8040B06F08CFF0498006807
:10376000806802900498006880690190049800685D
:10377000006A00900398016802980843029001983B
:1037800040F203318843019003998868896940EACF
:103790000121019808430190019840F60C418843AB
:1037A000019001984FF2F001884301900399C86895
:1037B000C96940EA01210198084301900399086909
:1037C000096A000140EA013101980843019000981C
:1037D00020F022000090009820F0880000900399CB
:1037E0004868496940EA011100980843009002982E
:1037F00004990968886001980499096888610098AB
:103800000499096808620499012081F84600049926
:1038100081F83E00049981F83F00049981F8420044
:10382000049981F84300049981F83D0000208DF847
:103830001700FFE79DF8170006B080BD80B594B073
:10384000139000201290119010900F900E901398EA
:1038500000680021C4F20101884234D1FFE7FFE78C
:1038600000200D9043F64400C4F20200016841F0CC
:1038700001010160006800F001000D900D98FFE764
:10388000FFE700200C9043F63000C4F2020001680C
:1038900041F010010160006800F010000C900C98DD
:1038A000FFE74FF420600E9002200F900020109050
:1038B00011900120129041F20000C4F202000EA902
:1038C000FEF744FCD8E013980068B0F1804F59D15E
:1038D000FFE7FFE700200B9043F64000C4F2020030
:1038E000016841F001010160006800F001000B90E7
:1038F0000B98FFE7FFE700200A9043F63000C4F280
:103900000200016841F001010160006800F001005F
:103910000A900A98FFE7FFE70020099043F630007D
:10392000C4F20200016841F002010160006800F089
:10393000020009900998FFE720200E9002200190D4
:103940000F9000200290109011900120039012908F
:103950000020C4F202000EA90491FEF7F7FB019BC0
:10396000029A039804994FF0080CCDF838C00F93D1
:1039700010921192129040F20040C4F20200FEF741
:10398000E5FB78E01398006840F20041C4F20001C2
:10399000884232D1FFE7FFE70020089043F640005D
:1039A000C4F20200016841F002010160006800F009
:1039B000020008900898FFE7FFE70020079043F611
:1039C0003000C4F20200016841F0020101600068A9
:1039D00000F0020007900798FFE730200E900220C9
:1039E0000F90002110911191129040F20040C4F20A
:1039F00002000EA9FEF7AAFB3CE01398006840F60F
:103A00000001C4F20001884233D1FFE7FFE7002044
:103A1000069043F64000C4F20200016841F0040140
:103A20000160006800F0040006900698FFE7FFE7D9
:103A30000020059043F63000C4F20200016841F016
:103A400008010160006800F0080005900598FFE794
:103A50004FF440500E9002200F90002110911191D0
:103A6000129040F60040C4F202000EA9FEF76EFB71
:103A7000FFE7FFE7FFE7FFE714B080BD80B586B042
:103A800004900391049890F83E008DF80B00049880
:103A900090F83F008DF80A00049890F842008DF8E5
:103AA0000900049890F843008DF808000398B8B90D
:103AB000FFE79DF80B00012805D1FFE79DF80900FD
:103AC000012804D0FFE701208DF8170079E0049960
:103AD000022081F83E00049981F84200FFE742E0AD
:103AE0000398042817D1FFE79DF80A00012805D1A3
:103AF000FFE79DF80800012804D0FFE701208DF8BA
:103B000017005EE00499022081F83F00049981F8D3
:103B10004300FFE726E09DF80B0001280FD1FFE7E7
:103B20009DF80A0001280AD1FFE79DF80900012845
:103B300005D1FFE79DF80800012804D0FFE7012028
:103B40008DF817003DE00499022081F83E000499A9
:103B500081F83F00049981F84200049981F84300FC
:103B6000FFE7FFE7FFE70398019020B1FFE7019827
:103B7000042807D00DE0049800680021012206F017
:103B80004BFE14E0049800680421012206F044FE74
:103B90000DE00498006800210122009206F03CFE2E
:103BA000009A04980068042106F036FEFFE70498A6
:103BB0000168086840F00100086000208DF81700D7
:103BC000FFE79DF8170006B080BD000081B00090AF
:103BD00001B0704780B584B0039003980068C06856
:103BE000029003980068006901909DF80400800726
:103BF000002824D5FFE79DF80800800700281DD580
:103C0000FFE7039801686FF0020008610399012043
:103C10000877039800688069800720B1FFE7039860
:103C2000FFF7D4FF06E0039800F044F9039800F092
:103C300039FAFFE7039900200877FFE7FFE79DF8CF
:103C400004004007002825D5FFE79DF8080040073D
:103C500000281ED5FFE7039801686FF00400086193
:103C600003990220087703980068806910F4407F68
:103C700004D0FFE70398FFF7A9FF06E0039800F0E0
:103C800019F9039800F00EFAFFE70399002008776E
:103C9000FFE7FFE79DF804000007002824D5FFE7B1
:103CA0009DF80800000700281DD5FFE7039801686C
:103CB0006FF00800086103990420087703980068F2
:103CC000C069800720B1FFE70398FFF77FFF06E098
:103CD000039800F0EFF8039800F0E4F9FFE7039988
:103CE00000200877FFE7FFE79DF80400C0060028E2
:103CF00025D5FFE79DF80800C00600281ED5FFE780
:103D0000039801686FF01000086103990820087794
:103D100003980068C06910F4407F04D0FFE703985F
:103D2000FFF754FF06E0039800F0C4F8039800F092
:103D3000B9F9FFE7039900200877FFE7FFE79DF84F
:103D40000400C00778B1FFE79DF80800C00748B13C
:103D5000FFE7039801686FF001000861039800F025
:103D60008BFAFFE7FFE79DF804000006002810D556
:103D7000FFE79DF808000006002809D5FFE7039833
:103D800001686FF0800008610398FFF7DDF9FFE735
:103D9000FFE79DF804004006002810D5FFE79DF8D6
:103DA00008004006002809D5FFE7039801686FF076
:103DB00040000861039800F071FAFFE7FFE79DF803
:103DC00004008006002810D5FFE79DF80800800653
:103DD000002809D5FFE7039801686FF0200008610B
:103DE0000398FFF7B5F9FFE7FFE704B080BD0000D7
:103DF00080B588B00790002006900590049003904D
:103E000002900798006840F60041C4F20001884221
:103E100020D1FFE7FFE70020019043F63000C4F215
:103E20000200016841F001010160006800F001003A
:103E300001900198FFE70F200290022003900021DB
:103E40000491059106900020C4F2020002A9FEF739
:103E50007DF92CE00798006840F20041C4F20101AE
:103E6000884223D1FFE7FFE70020009043F63000AF
:103E7000C4F20200016841F004010160006800F032
:103E8000040000900098FFE74FF4007002900220B9
:103E900003900020049005900320069040F6000057
:103EA000C4F2020002A9FEF751F9FFE7FFE708B0EC
:103EB00080BD000081B0009001B0704780B586B031
:103EC00004900391029200208DF80700FFE7049808
:103ED00090F83C00012804D1FFE702208DF817007C
:103EE00089E00499012081F83C00FFE7FFE7029890
:103EF00000900C2800F270800099DFE801F0076D57
:103F00006D6D206D6D6D3A6D6D6D53000498006898
:103F1000039906F0CDFC04980168886940F0080018
:103F2000886104980168886920F00400886103981A
:103F300002690498016888691043886150E0049818
:103F40000068039906F02AFD04980168886940F426
:103F50000060886104980168886920F48060886145
:103F60000398026904980168886940EA0220886120
:103F700036E004980068039906F08AFD0498016809
:103F8000C86940F00800C86104980168C86920F059
:103F90000400C8610398026904980168C869104365
:103FA000C8611DE004980068039906F0EBFD0498D1
:103FB0000168C86940F40060C86104980168C86974
:103FC00020F48060C8610398026904980168C86998
:103FD00040EA0220C86103E001208DF80700FFE7F6
:103FE000FFE70499002081F83C00FFE79DF80700F7
:103FF0008DF81700FFE79DF8170006B080BD0000A0
:1040000080B582B00090009820B9FFE701208DF8BC
:1040100007003FE0009890F83D0040B9FFE70099A5
:10402000002081F83C00009800F038F8FFE7009984
:10403000022081F83D00009951F8040B06F01AFBAC
:104040000099012081F84600FFE70099012081F8DE
:104050003E00009981F83F00009981F840000099E6
:1040600081F84100FFE7FFE70099012081F8420055
:10407000009981F84300009981F84400009981F883
:104080004500FFE70099012081F83D0000208DF8F0
:104090000700FFE79DF8070002B080BD81B00090E7
:1040A00001B0704781B0009001B0704780B58CB00E
:1040B0000A900991099828B9FFE70A9890F83E00FC
:1040C00007901CE00998042805D1FFE70A9890F8AA
:1040D0003F00069010E00998082805D1FFE70A98EC
:1040E00090F84000059004E00A9890F8410005908F
:1040F000FFE705980690FFE706980790FFE7079807
:10410000012804D0FFE701208DF82F00AFE00998C7
:1041100028B9FFE70A99022081F83E001EE00998BD
:10412000042806D1FFE70A99022081F83F00049095
:1041300012E00998082806D1FFE70A99022081F8C1
:104140004000039005E00A99022081F841000390A5
:10415000FFE703980490FFE70498FFE70A980068D8
:1041600009990122019206F057FB01980A99096802
:104170000022C4F20102914202900CD0FFE70A989B
:1041800000684FF60041CBF6FE710844B0FA80F0AB
:1041900040090290FFE70298C00738B1FFE70A988C
:1041A0000168486C40F400404864FFE70A980068E2
:1041B0000021C4F2010188423CD0FFE70A98006860
:1041C000B0F1804F36D0FFE70A98006840F2004116
:1041D000C4F2000188422DD0FFE70A98006840F63B
:1041E0000001C4F20001884224D0FFE70A98006869
:1041F00040F60041C4F2000188421BD0FFE70A9854
:10420000006840F20041C4F20101884212D0FFE789
:104210000A98006844F20001C4F20101884209D002
:10422000FFE70A98006841F60001C4F200018842E5
:1042300012D1FFE70A980068806800F00700089034
:104240000898062807D0FFE70A980168086840F038
:1042500001000860FFE706E00A980168086840F07E
:1042600001000860FFE700208DF82F00FFE79DF8B0
:104270002F000CB080BD000080B582B00190019885
:10428000006841F20001C4F20001884203D1FFE757
:1042900001F096FCFFE702B080BD000081B0009005
:1042A00001B0704780B586B004900391ADF80A2044
:1042B000049890F84200202848D1FFE7039820B1E5
:1042C000FFE7BDF80A0020B9FFE701208DF81700CD
:1042D00040E0049901200863049900204863049891
:1042E0000399BDF80A2006F0E7FF8DF8090004984D
:1042F000006B012821D1FFE7FFE70020019004981F
:104300000068006801900498006840680190019876
:10431000FFE7FFE7FFE70498006850E8030F40F06D
:1043200010000090FFE700990498026842E803102B
:104330000028F0D1FFE7FFE703E001208DF8090036
:10434000FFE79DF809008DF8170003E002208DF8C3
:104350001700FFE79DF8170006B080BD80B586B056
:104360000590ADF812100598006844F60001C4F2FB
:104370000001884201D0FFE7A0E0BDF8120000284C
:1043800000F09180FFE7BDF81200B0F5807F04D9FE
:10439000FFE74FF48070029003E0BDF81200029036
:1043A000FFE70298ADF81000BDF81200B0F5807F6D
:1043B00007D9FFE740F64C51C2F200010120087016
:1043C000FFE740F64D50C2F20000007803283AD8CB
:1043D000FFE740F64E50C2F20000007840F64D5123
:1043E000C2F20001097808448DF80F009DF80F0013
:1043F000042806D3FFE79DF80F0004388DF80F005E
:10440000FFE79DF80F1040F64C10C2F2000000EBE1
:104410000120BDF8102040F64401C2F20001FCF773
:1044200033F8BDF810009DF80F2040F64411C2F299
:10443000000121F8120040F64D51C2F20001087847
:10444000013008702EE040F64E50C2F2000001909C
:1044500000788DF80F009DF80F1040F64C10C2F256
:10446000000000EB0120BDF8102040F64401C2F22C
:104470000001FCF709F8BDF810009DF80F2040F688
:104480004411C2F2000121F812009DF80F0005F05E
:10449000D1FD0199087040F64C51C2F20001012093
:1044A0000870FFE7FFE705F085FE38B1FFE740F64B
:1044B0004F51C2F2000101200870FFE706B080BD35
:1044C00080B582B001900198006844F60001C4F202
:1044D0000001884201D0FFE735E040F64C51C2F2BE
:1044E00000010120087040F65270C2F200000088FE
:1044F000F0B1FFE7019890F84100202818D1FFE7BC
:1045000040F65271C2F200010020088040F654715A
:10451000C2F200010120087005F058FF38B1FFE732
:1045200040F65471C2F2000101200870FFE7FFE776
:1045300005F040FE38B1FFE740F64F51C2F20001EE
:1045400001200870FFE702B080BD000080B592B086
:104550001190119800680068109011980068C06868
:104560000F901198006840690E9000200D900C90FB
:10457000109800F00F000D900D9888B9FFE79DF896
:104580004000800600280AD5FFE79DF83C00800621
:10459000002804D5FFE7119806F03CFD02E2FFE792
:1045A0000D98002800F0C280FFE79DF83800C00792
:1045B00038B9FFE7BDF83C0010F4907F00F0B680FA
:1045C000FFE79DF84000C00758B1FFE79DF83D00A8
:1045D000C00730B1FFE71199486C40F00100486412
:1045E000FFE79DF84000400700280BD5FFE79DF846
:1045F0003800C00730B1FFE71199486C40F0020065
:104600004864FFE79DF84000800700280BD5FFE7CE
:104610009DF83800C00730B1FFE71199486C40F0B1
:1046200004004864FFE79DF840000007002811D50A
:10463000FFE79DF83C008006002805D4FFE79DF8C1
:104640003800C00730B1FFE71199486C40F008000E
:104650004864FFE71198406C002866D0FFE79DF89A
:104660004000800600280AD5FFE79DF83C00800640
:10467000002804D5FFE7119806F0CCFCFFE711985D
:1046800000684069C0F380100C901198406C0007DE
:10469000002804D4FFE70C9800283ED0FFE71198CB
:1046A00006F03EFC119800684069400600282FD5AE
:1046B000FFE7FFE7FFE71198006850E8050F20F0DB
:1046C00040000B90FFE70B991198026842E8051033
:1046D0000028F0D1FFE7FFE71198C06B98B1FFE722
:1046E0001198C16B4AF6CD40C0F6000008651198DC
:1046F000C06BFDF7E7F928B1FFE71198C06B016DBA
:104700008847FFE703E01198FFF7DAFEFFE703E0D1
:104710001198FFF7D5FEFFE706E01198FFF7D0FEEE
:10472000119900204864FFE7FFE73BE11198006B17
:10473000012840F01781FFE79DF84000C0060028DF
:1047400040F11081FFE79DF83C00C006002840F1D1
:104750000981FFE7FFE700200A90119800680068D0
:104760000A901198006840680A900A98FFE711982B
:10477000006840694006002840F19A80FFE71198E0
:10478000C06B00684068ADF82600BDF82600002820
:1047900075D0FFE7BDF826001199898D88426EDA41
:1047A000FFE7BDF826001199C8851198C06BC06954
:1047B000B0F5807F58D0FFE7FFE7FFE7119800686A
:1047C00050E8030F20F480700890FFE708991198D3
:1047D000026842E803100028F0D1FFE7FFE7FFE797
:1047E000FFE71198006850E8050F20F001000790DE
:1047F000FFE707991198026842E805100028F0D1F8
:10480000FFE7FFE7FFE7FFE71198006850E8050FB3
:1048100020F040000690FFE706991198026842E8F0
:1048200005100028F0D1FFE7FFE71199202081F85B
:104830004200119900200863FFE7FFE71198006824
:1048400050E8030F20F010000590FFE7059911983C
:10485000026842E803100028F0D1FFE7FFE7119853
:10486000C06BFDF7B9F8FFE7119902204863119872
:10487000818DC28D891A89B2FFF770FD17E0BDF8EE
:1048800026001199898D884210D1FFE71198C06BDD
:10489000C069B0F5807F08D1FFE711990220486315
:1048A0001198818DFFF75AFDFFE7FFE7FFE779E0F9
:1048B0001199888DC98D401AADF812001198C08DDC
:1048C00000284ED0FFE7BDF81200002849D0FFE7CE
:1048D000FFE7FFE71198006850E8030F20F490709D
:1048E0000390FFE703991198026842E8031000283B
:1048F000F0D1FFE7FFE7FFE7FFE71198006850E816
:10490000050F20F001000290FFE70299119802685C
:1049100042E805100028F0D1FFE7FFE711992020B9
:1049200081F84200119900200863FFE7FFE7119822
:10493000006850E8030F20F010000190FFE7019994
:104940001198026842E803100028F0D1FFE7FFE762
:104950001199022048631198BDF81210FFF7FEFC70
:10496000FFE71FE09DF84000000600280AD5FFE79A
:104970009DF83C000006002804D5FFE7119806F0DA
:1049800033FD0FE09DF84000400600280AD5FFE700
:104990009DF83C004006002804D5FFE7119806F07A
:1049A00009FBFFE712B080BD80B582B0009000988F
:1049B00020B9FFE701208DF8070040E000988069EA
:1049C00008B1FFE700E0FFE7009890F8410040B928
:1049D000FFE70099002081F84000009800F034F8CB
:1049E000FFE70099242081F8410000980168C86819
:1049F00020F40050C860009806F0C0FB00980168E1
:104A0000086920F49040086100980168486920F026
:104A10002A00486100980168C86840F40050C860E6
:104A2000009900204864009A202182F84110009AE1
:104A300082F84210009948638DF80700FFE79DF85F
:104A4000070002B080BD000080B58CB00B90002044
:104A50000A9009900890079006900B98006844F619
:104A60000001C4F20001884240F09380FFE7FFE7B5
:104A70000020059043F64000C4F20200016841F4B2
:104A800080210160006800F4802005900598FFE710
:104A9000FFE70020049043F63000C4F202000168F2
:104AA00041F002010160006800F0020004900498E7
:104AB000FFE74FF44060069002200790002002902C
:104AC00008900320099007200A9040F20040C4F2A9
:104AD000020006A9FDF73AFB029940F6AC70C2F25B
:104AE0000000039046F22802C4F2020202604FF076
:104AF000006242608160C1604FF480620261416186
:104B00008161C16101624162FDF78EF918B1FFE771
:104B1000FCF75EFFFFE7FFE70B9840F6AC71C2F2CF
:104B20000001C1630B988863FFE741F20C00C2F2F9
:104B30000000019046F25801C4F2020101604FF0FA
:104B400000614160402181600021C1604FF48062BA
:104B5000026141618161C16101624162FDF764F9F5
:104B600018B1FFE7FCF734FFFFE7FFE70B9841F2CE
:104B70000C01C2F2000181630B988863FFE72720D4
:104B8000009000221146FDF785FD0098FDF778FDA5
:104B9000FFE70CB080BD000081B0009001B070470D
:104BA00081B0009001B0704780B586B00490039149
:104BB000ADF80A20049890F8410020286AD1FFE758
:104BC000039820B1FFE7BDF80A0020B9FFE70120F4
:104BD0008DF8170062E0039804990862BDF80A0096
:104BE00004998884BDF80A000499C88404990020B7
:104BF0004864049A212182F8411004998A6B4AF68C
:104C00008D61C0F60001D16304998A6B4AF609717F
:104C1000C0F60001116404998A6B4AF6E941C0F6B6
:104C20000001D1640499896B086503A80190049878
:104C30000268806B019909680432BDF80A30FDF7FB
:104C4000ABF958B1FFE7049910204864049920207B
:104C500081F8410001208DF817001FE004980168D9
:104C60006FF040000860FFE7FFE70498006850E835
:104C7000050F40F080000090FFE70099049802685B
:104C800042E805100028F0D1FFE7FFE700208DF88B
:104C9000170003E002208DF81700FFE79DF81700CA
:104CA00006B080BD80B584B002900298006844F6DA
:104CB0000001C4F20001884201D0FFE766E0EFF393
:104CC000108003900398019072B640F65270C2F2C1
:104CD00000000088ADF80200BDF8020058B3FFE7FD
:104CE000BDF8020040F65071C2F200010988884206
:104CF00021DCFFE740F65670C2F200000188BDF8E3
:104D00000220114401800088B0F5007F09D3FFE73D
:104D100040F65671C2F200010888A0F500700880C4
:104D2000FFE740F65071C2F200010888BDF802208A
:104D3000801A088016E0BDF8020090B1FFE740F647
:104D40005671C2F200010020088040F65071C2F294
:104D50000001088040F65471C2F200010120087081
:104D6000FFE7FFE740F65271C2F200010020088021
:104D7000019805F049FA05F029FB38B1FFE740F644
:104D80005471C2F2000101200870FFE704B080BD39
:104D900081B0009001B0704780B582B040F27403DA
:104DA000C2F20003019350203F21022200F04AF991
:104DB0000198018841F2B020C2F20000016090ED3C
:104DC000000AB8EEC00A9FED211A20EE010A40F257
:104DD0007800C2F2000090ED001A9FED1D2A20EE2F
:104DE000020A30EE410A9FED1B1A30EE010A40F232
:104DF0007000C2F2000080ED000A90ED000AB4EEEF
:104E0000410AF1EE10FA0DDBFFE740F27000C2F24A
:104E1000000090ED000A9FED101A30EE010A80EDBF
:104E2000000AFFE740F27000C2F2000090ED000AB5
:104E30009FED091A30EE010A80ED000A90ED000A9C
:104E4000B1EE400A80ED000A02B080BD00000038DB
:104E5000000034430000B4430000B4C380B582B006
:104E600000F05EF86420FDF7F9F840F27403C2F236
:104E70000003019350203F21022200F0E3F8019843
:104E8000018841F2B420C2F20000016090ED000AF6
:104E9000B8EEC00A9FED071A20EE010A9FED061A30
:104EA00020EE010A40F27800C2F2000080ED000A14
:104EB00002B080BD0000003800003443FFE7FEE789
:104EC00080B584B040F28021C4F241210020086006
:104ED000FFE740F60001C4F20201086820F00C0070
:104EE0000860086840F004000860FFE740F2842191
:104EF000C4F241210020039008600120019006F0D7
:104F00002BFB019840F28021C4F2412102910860FC
:104F100006F022FB02990398086004B080BD0000EF
:104F200040F28021C4F241210120086040F2842136
:104F3000C4F241210860704780B582B040F2802100
:104F4000C4F2412100200860FFE740F60001C4F2EE
:104F50000201086820F00C000860086840F00400B6
:104F60000860FFE740F28421C4F241210120009053
:104F7000086006F0F1FA009840F28021C4F2412165
:104F80000191086006F0E8FA01990020086002B07B
:104F900080BD000080B584B08DF80F0000208DF832
:104FA0000D0040F28421C4F2412101200860FFE796
:104FB00040F60001C4F20201086820F00C0008600D
:104FC000FFE700208DF80E00FFE79DF80E00072890
:104FD0002ADCFFE740F28021C4F241210191002048
:104FE00008600120029006F0B7FA01990298086063
:104FF0009DF80D0040008DF80D0040F20420C4F231
:105000004120006830B1FFE79DF80D0001308DF8B8
:105010000D00FFE7012006F09FFAFFE79DF80E0064
:1050200001308DF80E00D0E79DF80F0018B9FFE7AA
:10503000FFF782FF02E0FFF743FFFFE79DF80D0057
:1050400004B080BD80B582B08DF806008DF80510E3
:105050008DF80420009300F09BF89DF806004000B6
:10506000C0B200F04BF800F0EFF830B1FFE700F00D
:10507000BDF801208DF807003BE09DF8050000F029
:105080003DF800F0E1F820B9FFE7012006F064FAEE
:10509000FFE700F07DF89DF8060040000130C0B247
:1050A00000F02CF800F0D0F8FFE79DF80400D0B134
:1050B000FFE79DF80400012806D1FFE70020FFF775
:1050C00069FF0099087005E00120FFF763FF009970
:1050D0000870FFE79DF8040001388DF8040000987F
:1050E00001300090E1E700F081F800208DF8070022
:1050F000FFE79DF8070002B080BD000080B584B0D6
:105100008DF80F00FFE740F60001C4F202010868C5
:1051100020F00C000860086840F004000860FFE719
:1051200040F28021C4F24121002008608DF80E0079
:10513000FFE79DF80E00072827DCFFE79DF80F002A
:10514000C00940F28421C4F2412108609DF80F009B
:1051500040008DF80F000120029006F0FDF9029842
:1051600040F28021C4F241210191086006F0F4F977
:10517000019A02980021116006F0EEF9FFE79DF810
:105180000E0001308DF80E00D3E704B080BD0000A2
:1051900080B584B0FFE740F60001C4F20201086860
:1051A00020F00C000860086840F004000860FFE789
:1051B00040F28421C4F2412100910120086040F2B4
:1051C0008021C4F24121029108600220019006F082
:1051D000C3F9009A019800210391116006F0BCF90F
:1051E00002990398086004B080BD000080B584B0C7
:1051F000FFE740F60001C4F20201086820F00C004D
:105200000860086840F004000860FFE740F2802171
:10521000C4F2412101910020086040F28421C4F2CF
:105220004121029108600120039006F095F901994F
:105230000398086006F090F902990398086006F058
:105240008BF904B080BD000080B582B000208DF8DD
:105250000600FFE740F60001C4F20201086820F0F2
:105260000C000860FFE740F28421C4F241210120D4
:105270000090086006F070F9009840F28021C4F2B6
:105280004121086006F068F9FFE740F20420C4F20B
:105290004120006888B1FFE79DF8060001308DF8D5
:1052A00006009DF80600FB2806DBFFE7FFF79EFFE0
:1052B00001208DF8070009E0E7E740F28021C4F201
:1052C0004121002008608DF80700FFE79DF80700E6
:1052D00002B080BD80B584B0FFE70020039043F6A4
:1052E0003000C4F20200016841F40011016000685E
:1052F00000F4001003900398FFE70C2000900022B8
:1053000001921146FDF7C6F90098FDF7B9F9019A27
:105310000E2002901146FDF7BDF90298FDF7B0F995
:1053200004B080BD80B59CB000201B901A901990ED
:1053300018901790FFE70020169043F63000C4F253
:105340000200016841F020010160006800F02000C7
:1053500016901698FFE7FFE70020159043F63000FF
:10536000C4F20200016841F080010160006800F0B1
:10537000800015901598FFE7FFE70020149043F692
:105380003000C4F20200016841F0040101600068CD
:1053900000F0040014901498FFE7FFE7002013903A
:1053A00043F63000C4F20200016841F001010160DF
:1053B000006800F0010013901398FFE7FFE700205A
:1053C000129043F63000C4F20200016841F040013F
:1053D0000160006800F0400012901298FFE7FFE7BC
:1053E0000020119043F63000C4F20200016841F041
:1053F00010010160006800F0100011901198FFE7A3
:10540000FFE70020109043F63000C4F2020001686C
:1054100041F002010160006800F002001090109855
:10542000FFE7FFE700200F9043F63000C4F20200D0
:10543000016841F008010160006800F008000F9069
:105440000F98FFE741F20040C4F2020001904EF2D3
:105450001801009100220D92FDF76CF80D9A40F6AC
:105460000000C4F20200039003210291FDF762F8EC
:105470000D9A41F60000C4F202000890F121049157
:10548000FDF758F80D9A41F20000C4F202000B90AB
:1054900080210691FDF74EF80D9A40F60040C4F2C7
:1054A0000200079001210A91FDF744F8009B019842
:1054B0000A9A0D991793189219911A9117A90C919C
:1054C000FCF744FE029B03980A9A0C991793112348
:1054D00018931992022205921A92FCF737FEDDF812
:1054E00010C008980A9B0C990D9ACDF85CC01893CF
:1054F00019921A92FCF72AFEDDF814C008980A9A4D
:105500000C990D9BCDF85CC018931992FCF71EFE08
:10551000DDF818C00A9B0B980C990D9ACDF85CC069
:10552000189319921A92FCF711FE0C990D984FF4EA
:105530004072099217924FF4441218921990002069
:10554000C4F20200FCF702FE07980A9B0C990D9A20
:105550001793189319921A92FCF7F8FD07980C9973
:105560000D9AC023179318921992FCF7EFFD089833
:105570000C990D9A4FF40C43179318921992FCF75B
:10558000E5FD099A0C990D9817921890199040F220
:105590000040C4F20200FCF7D9FD0A9B0B980C995D
:1055A0000D9A179318921992FCF7D0FD0D9A1720B7
:1055B0000E901146FDF76EF80E98FDF761F81CB0DD
:1055C00080BD000080B58EB005A800902421FBF7B7
:1055D00004F80099002201920492039241F26C00B7
:1055E000C2F2000002900023C4F201030360426093
:1055F00082604FF6FF73C3600261426182610323E0
:105600000593069201230793089209920A920B933D
:105610000C920D92FEF77AF818B1FFE7FCF7D8F973
:10562000FFE700200390049041F26C00C2F20000FA
:1056300003A9FDF7EBFD18B1FFE7FCF7C9F9FFE798
:105640000EB080BD80B58EB005A801902421FAF778
:10565000C4FF0199002202920492039241F2B40025
:10566000C2F200004FF080430360426082604FF05E
:10567000FF33C36002618261032305930692012315
:105680000793089209920A920B930C920D92FEF7DF
:105690003DF818B1FFE7FCF79BF9FFE70020039006
:1056A000049041F2B400C2F2000003A9FDF7AEFD80
:1056B00018B1FFE7FCF78CF9FFE70EB080BD0000E2
:1056C00080B58EB005A801902421FAF786FF0199D4
:1056D000002202920492039241F2FC00C2F2000006
:1056E00040F20043C4F200030360426082604FF660
:1056F000FF73C36002618261032305930692012355
:105700000793089209920A920B930C920D92FDF75F
:10571000FDFF18B1FFE7FCF75BF9FFE700200390FE
:10572000049041F2FC00C2F2000003A9FDF76EFDF7
:1057300018B1FFE7FCF74CF9FFE70EB080BD0000A1
:1057400080B58EB005A801902421FAF746FF019993
:10575000002202920492039241F24410C2F200002D
:1057600040F60003C4F200030360426082604FF61B
:10577000FF73C360026182610323059306920123D4
:105780000793089209920A920B930C920D92FDF7DF
:10579000BDFF18B1FFE7FCF71BF9FFE700200390FE
:1057A000049041F24410C2F2000003A9FDF72EFD5F
:1057B00018B1FFE7FCF70CF9FFE70EB080BD000061
:1057C00080B58EB0002100910D910C910B910A9142
:1057D0000991089107910691059104910391029115
:1057E000019141F28C10C2F2000040F60042C4F276
:1057F0000002026003224260816040F2E732C26030
:1058000001618161FDF794FD18B1FFE7FCF7E0F855
:10581000FFE74FF480500A9041F28C10C2F2000072
:105820000AA9FDF7B1FE18B1FFE7FCF7D1F8FFE7D1
:1058300041F28C10C2F20000FEF7E2FB18B1FFE764
:10584000FCF7C6F8FFE700200890099041F28C10A1
:10585000C2F2000008A9FDF7D9FC18B1FFE7FCF778
:10586000B7F8FFE7602001900022029203920592B0
:1058700041F28C10C2F2000001A9FEF71FFB18B123
:10588000FFE7FCF7A5F8FFE741F28C10C2F2000039
:1058900001A90422FEF712FB18B1FFE7FCF798F804
:1058A000FFE741F28C10C2F2000001A90822FEF7C6
:1058B00005FB18B1FFE7FCF78BF8FFE741F28C100E
:1058C000C2F2000001A90C22FEF7F8FA18B1FFE7B6
:1058D000FCF77EF8FFE741F28C10C2F20000FEF701
:1058E00087FA0EB080BD000080B582B00021019122
:1058F000009141F2D410C2F2000041F20002C4F261
:105900000002026041F26702426081606322C2606D
:105910008161FDF70DFD18B1FFE7FCF759F8FFE7CE
:1059200000200090019041F2D410C2F200006946BC
:10593000FDF76CFC18B1FFE7FCF74AF8FFE702B08F
:1059400080BD000080B598B000210191179116919B
:105950001591149113911291119110910F910E9133
:105960000D910C910B910A91099108910791069163
:1059700005910491039141F21C20C2F200000290B3
:1059800040F20042C4F201020260032242608160E0
:1059900040F2E732C260016141618161FDF7C8FCFC
:1059A00018B1FFE7FCF714F8FFE74FF480501490AC
:1059B00041F21C20C2F2000014A9FDF7E5FD18B168
:1059C000FFE7FCF705F8FFE741F21C20C2F20000F8
:1059D000FEF716FB18B1FFE7FBF7FAFFFFE7002021
:1059E0001290139041F21C20C2F2000012A9FDF7A0
:1059F0000DFC18B1FFE7FBF7EBFFFFE760200B9012
:105A000000200C900D900F901090119041F21C20EE
:105A1000C2F200000BA90C22FEF750FA18B1FFE702
:105A2000FBF7D6FFFFE70020039004900590069057
:105A300007904FF4005108910A9041F21C20C2F2E5
:105A4000000003A9FDF788FB18B1FFE7FBF7C0FFD3
:105A5000FFE741F21C20C2F20000FEF7C9F918B0BE
:105A600080BD000080B582B041F26420C2F2000027
:105A7000019044F60001C4F2000101604FF4E131ED
:105A8000416000218160C16001610C22426181613D
:105A9000C161FEF789FF18B1FFE7FBF799FFFFE748
:105AA00002B080BDFFE7FEE780B584B0EFF3108061
:105AB00003900398029072B640F27D00C2F200009B
:105AC0000078022803D1FFE701F00CFC02E001F0AE
:105AD0005FFCFFE740F28C01C2F200010020087079
